{
	"data": {
		"bytecode": {
			"linkReferences": {},
			"object": "608060405234801561000f575f80fd5b506040518060400160405280600981526020017f50726963657475726500000000000000000000000000000000000000000000008152506040518060400160405280600781526020017f5052435455524500000000000000000000000000000000000000000000000000815250815f908161008a91906103d3565b50806001908161009a91906103d3565b5050506100b96100ae6100cf60201b60201c565b6100d660201b60201c565b62015180600c8190555042600d819055506104a2565b5f33905090565b5f60075f9054906101000a900473ffffffffffffffffffffffffffffffffffffffff1690508160075f6101000a81548173ffffffffffffffffffffffffffffffffffffffff021916908373ffffffffffffffffffffffffffffffffffffffff1602179055508173ffffffffffffffffffffffffffffffffffffffff168173ffffffffffffffffffffffffffffffffffffffff167f8be0079c531659141344cd1fd0a4f28419497f9722a3daafe3b4186f6b6457e060405160405180910390a35050565b5f81519050919050565b7f4e487b71000000000000000000000000000000000000000000000000000000005f52604160045260245ffd5b7f4e487b71000000000000000000000000000000000000000000000000000000005f52602260045260245ffd5b5f600282049050600182168061021457607f821691505b602082108103610227576102266101d0565b5b50919050565b5f819050815f5260205f209050919050565b5f6020601f8301049050919050565b5f82821b905092915050565b5f600883026102897fffffffffffffffffffffffffffffffffffffffffffffffffffffffffffffffff8261024e565b610293868361024e565b95508019841693508086168417925050509392505050565b5f819050919050565b5f819050919050565b5f6102d76102d26102cd846102ab565b6102b4565b6102ab565b9050919050565b5f819050919050565b6102f0836102bd565b6103046102fc826102de565b84845461025a565b825550505050565b5f90565b61031861030c565b6103238184846102e7565b505050565b5b818110156103465761033b5f82610310565b600181019050610329565b5050565b601f82111561038b5761035c8161022d565b6103658461023f565b81016020851015610374578190505b6103886103808561023f565b830182610328565b50505b505050565b5f82821c905092915050565b5f6103ab5f1984600802610390565b1980831691505092915050565b5f6103c3838361039c565b9150826002028217905092915050565b6103dc82610199565b67ffffffffffffffff8111156103f5576103f46101a3565b5b6103ff82546101fd565b61040a82828561034a565b5f60209050601f83116001811461043b575f8415610429578287015190505b61043385826103b8565b86555061049a565b601f1984166104498661022d565b5f5b828110156104705784890151825560018201915060208501945060208101905061044b565b8683101561048d5784890151610489601f89168261039c565b8355505b6001600288020188555050505b505050505050565b613d56806104af5f395ff3fe608060405234801561000f575f80fd5b50600436106101c2575f3560e01c8063715018a6116100f7578063b88d4fde11610095578063e4e47c3e1161006f578063e4e47c3e1461053b578063e985e9c51461056b578063f243d0a61461059b578063f2fde38b146105a5576101c2565b8063b88d4fde146104bf578063c87b56dd146104db578063d9a4e1931461050b576101c2565b80639309d80d116100d15780639309d80d14610437578063947a36fb1461046757806395d89b4114610485578063a22cb465146104a3576101c2565b8063715018a6146103df578063739ebd03146103e95780638da5cb5b14610419576101c2565b80632e1f6554116101645780634585e33b1161013e5780634585e33b146103325780636352211e1461034e5780636e04ff0d1461037e57806370a08231146103af576101c2565b80632e1f6554146102c85780633f3b3b27146102f857806342842e0e14610316576101c2565b8063095ea7b3116101a0578063095ea7b31461024457806310c7f0b91461026057806322a900821461029057806323b872dd146102ac576101c2565b806301ffc9a7146101c657806306fdde03146101f6578063081812fc14610214575b5f80fd5b6101e060048036038101906101db9190612358565b6105c1565b6040516101ed919061239d565b60405180910390f35b6101fe6106a2565b60405161020b9190612426565b60405180910390f35b61022e60048036038101906102299190612479565b610731565b60405161023b91906124e3565b60405180910390f35b61025e60048036038101906102599190612526565b6107b2565b005b61027a60048036038101906102759190612479565b6108c8565b60405161028791906125bf565b60405180910390f35b6102aa60048036038101906102a59190612479565b6108f8565b005b6102c660048036038101906102c191906125d8565b61097e565b005b6102e260048036038101906102dd91906128f6565b6109de565b6040516102ef91906129a1565b60405180910390f35b610300610c11565b60405161030d91906129a1565b60405180910390f35b610330600480360381019061032b91906125d8565b610c17565b005b61034c60048036038101906103479190612a13565b610c36565b005b61036860048036038101906103639190612479565b610c61565b60405161037591906124e3565b60405180910390f35b61039860048036038101906103939190612a13565b610d0d565b6040516103a6929190612ab0565b60405180910390f35b6103c960048036038101906103c49190612ade565b610d2b565b6040516103d691906129a1565b60405180910390f35b6103e7610ddf565b005b61040360048036038101906103fe9190612479565b610e66565b6040516104109190612b21565b60405180910390f35b610421610f14565b60405161042e91906124e3565b60405180910390f35b610451600480360381019061044c9190612b64565b610f3c565b60405161045e91906129a1565b60405180910390f35b61046f610f94565b60405161047c91906129a1565b60405180910390f35b61048d610f9a565b60405161049a9190612426565b60405180910390f35b6104bd60048036038101906104b89190612bcc565b61102a565b005b6104d960048036038101906104d49190612ca8565b611040565b005b6104f560048036038101906104f09190612479565b6110a2565b6040516105029190612426565b60405180910390f35b61052560048036038101906105209190612d28565b6110b4565b6040516105329190612426565b60405180910390f35b61055560048036038101906105509190612d28565b61115a565b60405161056291906129a1565b60405180910390f35b61058560048036038101906105809190612d66565b61117a565b604051610592919061239d565b60405180910390f35b6105a3611208565b005b6105bf60048036038101906105ba9190612ade565b6112f6565b005b5f7f80ac58cd000000000000000000000000000000000000000000000000000000007bffffffffffffffffffffffffffffffffffffffffffffffffffffffff1916827bffffffffffffffffffffffffffffffffffffffffffffffffffffffff1916148061068b57507f5b5e139f000000000000000000000000000000000000000000000000000000007bffffffffffffffffffffffffffffffffffffffffffffffffffffffff1916827bffffffffffffffffffffffffffffffffffffffffffffffffffffffff1916145b8061069b575061069a826113ec565b5b9050919050565b60605f80546106b090612dd1565b80601f01602080910402602001604051908101604052809291908181526020018280546106dc90612dd1565b80156107275780601f106106fe57610100808354040283529160200191610727565b820191905f5260205f20905b81548152906001019060200180831161070a57829003601f168201915b5050505050905090565b5f61073b82611455565b61077a576040517f08c379a000000000000000000000000000000000000000000000000000000000815260040161077190612e71565b60405180910390fd5b60045f8381526020019081526020015f205f9054906101000a900473ffffffffffffffffffffffffffffffffffffffff169050919050565b5f6107bc82610c61565b90508073ffffffffffffffffffffffffffffffffffffffff168373ffffffffffffffffffffffffffffffffffffffff160361082c576040517f08c379a000000000000000000000000000000000000000000000000000000000815260040161082390612eff565b60405180910390fd5b8073ffffffffffffffffffffffffffffffffffffffff1661084b6114bd565b73ffffffffffffffffffffffffffffffffffffffff16148061087a5750610879816108746114bd565b61117a565b5b6108b9576040517f08c379a00000000000000000000000000000000000000000000000000000000081526004016108b090612f8d565b60405180910390fd5b6108c383836114c4565b505050565b600b602052805f5260405f205f915054906101000a900473ffffffffffffffffffffffffffffffffffffffff1681565b6109006114bd565b73ffffffffffffffffffffffffffffffffffffffff1661091e610f14565b73ffffffffffffffffffffffffffffffffffffffff1614610974576040517f08c379a000000000000000000000000000000000000000000000000000000000815260040161096b90612ff5565b60405180910390fd5b80600c8190555050565b61098f6109896114bd565b8261157a565b6109ce576040517f08c379a00000000000000000000000000000000000000000000000000000000081526004016109c590613083565b60405180910390fd5b6109d9838383611656565b505050565b5f8060085490505f5b6005811015610a4557848181518110610a0357610a026130a1565b5b602002602001015160095f8481526020019081526020015f205f8381526020019081526020015f209081610a379190613262565b5080806001019150506109e7565b505f5b6005811015610a9d57858181518110610a6457610a636130a1565b5b6020026020010151600a5f8481526020019081526020015f205f8381526020019081526020015f20819055508080600101915050610a48565b5082600b5f8381526020019081526020015f205f6101000a81548173ffffffffffffffffffffffffffffffffffffffff021916908373ffffffffffffffffffffffffffffffffffffffff160217905550610af786826118b1565b610ba88160095f8481526020019081526020015f205f600281526020019081526020015f208054610b2790612dd1565b80601f0160208091040260200160405190810160405280929190818152602001828054610b5390612dd1565b8015610b9e5780601f10610b7557610100808354040283529160200191610b9e565b820191905f5260205f20905b815481529060010190602001808311610b8157829003601f168201915b50505050506118ce565b808673ffffffffffffffffffffffffffffffffffffffff167f30385c845b448a36257a6a1716e6ad2e1bc2cbe333cde1e69fe849ad6511adfe60405160405180910390a3600160085f828254610bfe919061335e565b9250508190555080915050949350505050565b600d5481565b610c3183838360405180602001604052805f815250611040565b505050565b600c54600d5442610c479190613391565b1115610c5d5742600d81905550610c5c611208565b5b5050565b5f8060025f8481526020019081526020015f205f9054906101000a900473ffffffffffffffffffffffffffffffffffffffff1690505f73ffffffffffffffffffffffffffffffffffffffff168173ffffffffffffffffffffffffffffffffffffffff1603610d04576040517f08c379a0000000000000000000000000000000000000000000000000000000008152600401610cfb90613434565b60405180910390fd5b80915050919050565b5f6060600c54600d5442610d219190613391565b1191509250929050565b5f8073ffffffffffffffffffffffffffffffffffffffff168273ffffffffffffffffffffffffffffffffffffffff1603610d9a576040517f08c379a0000000000000000000000000000000000000000000000000000000008152600401610d91906134c2565b60405180910390fd5b60035f8373ffffffffffffffffffffffffffffffffffffffff1673ffffffffffffffffffffffffffffffffffffffff1681526020019081526020015f20549050919050565b610de76114bd565b73ffffffffffffffffffffffffffffffffffffffff16610e05610f14565b73ffffffffffffffffffffffffffffffffffffffff1614610e5b576040517f08c379a0000000000000000000000000000000000000000000000000000000008152600401610e5290612ff5565b60405180910390fd5b610e645f611939565b565b5f80600b5f8481526020019081526020015f205f9054906101000a900473ffffffffffffffffffffffffffffffffffffffff1673ffffffffffffffffffffffffffffffffffffffff1663feaf968c6040518163ffffffff1660e01b815260040160a060405180830381865afa158015610ee1573d5f803e3d5ffd5b505050506040513d601f19601f82011682018060405250810190610f059190613547565b50505091505080915050919050565b5f60075f9054906101000a900473ffffffffffffffffffffffffffffffffffffffff16905090565b5f805f90505b6005811015610f8857600a5f8481526020019081526020015f205f8281526020019081526020015f20548411610f7b5780915050610f8e565b8080600101915050610f42565b50600490505b92915050565b600c5481565b606060018054610fa990612dd1565b80601f0160208091040260200160405190810160405280929190818152602001828054610fd590612dd1565b80156110205780601f10610ff757610100808354040283529160200191611020565b820191905f5260205f20905b81548152906001019060200180831161100357829003601f168201915b5050505050905090565b61103c6110356114bd565b83836119fc565b5050565b61105161104b6114bd565b8361157a565b611090576040517f08c379a000000000000000000000000000000000000000000000000000000000815260040161108790613083565b60405180910390fd5b61109c84848484611b63565b50505050565b60606110ad82611bbf565b9050919050565b6009602052815f5260405f20602052805f5260405f205f915091505080546110db90612dd1565b80601f016020809104026020016040519081016040528092919081815260200182805461110790612dd1565b80156111525780601f1061112957610100808354040283529160200191611152565b820191905f5260205f20905b81548152906001019060200180831161113557829003601f168201915b505050505081565b600a602052815f5260405f20602052805f5260405f205f91509150505481565b5f60055f8473ffffffffffffffffffffffffffffffffffffffff1673ffffffffffffffffffffffffffffffffffffffff1681526020019081526020015f205f8373ffffffffffffffffffffffffffffffffffffffff1673ffffffffffffffffffffffffffffffffffffffff1681526020019081526020015f205f9054906101000a900460ff16905092915050565b42600d819055505f5b6008548110156112f3575f61122582610e66565b90505f6112328284610f3c565b90506112e48360095f8681526020019081526020015f205f8481526020019081526020015f20805461126390612dd1565b80601f016020809104026020016040519081016040528092919081815260200182805461128f90612dd1565b80156112da5780601f106112b1576101008083540402835291602001916112da565b820191905f5260205f20905b8154815290600101906020018083116112bd57829003601f168201915b50505050506118ce565b50508080600101915050611211565b50565b6112fe6114bd565b73ffffffffffffffffffffffffffffffffffffffff1661131c610f14565b73ffffffffffffffffffffffffffffffffffffffff1614611372576040517f08c379a000000000000000000000000000000000000000000000000000000000815260040161136990612ff5565b60405180910390fd5b5f73ffffffffffffffffffffffffffffffffffffffff168173ffffffffffffffffffffffffffffffffffffffff16036113e0576040517f08c379a00000000000000000000000000000000000000000000000000000000081526004016113d79061362e565b60405180910390fd5b6113e981611939565b50565b5f7f01ffc9a7000000000000000000000000000000000000000000000000000000007bffffffffffffffffffffffffffffffffffffffffffffffffffffffff1916827bffffffffffffffffffffffffffffffffffffffffffffffffffffffff1916149050919050565b5f8073ffffffffffffffffffffffffffffffffffffffff1660025f8481526020019081526020015f205f9054906101000a900473ffffffffffffffffffffffffffffffffffffffff1673ffffffffffffffffffffffffffffffffffffffff1614159050919050565b5f33905090565b8160045f8381526020019081526020015f205f6101000a81548173ffffffffffffffffffffffffffffffffffffffff021916908373ffffffffffffffffffffffffffffffffffffffff160217905550808273ffffffffffffffffffffffffffffffffffffffff1661153483610c61565b73ffffffffffffffffffffffffffffffffffffffff167f8c5be1e5ebec7d5bd14f71427d1e84f3dd0314c0f7b2291e5b200ac8c7c3b92560405160405180910390a45050565b5f61158482611455565b6115c3576040517f08c379a00000000000000000000000000000000000000000000000000000000081526004016115ba906136bc565b60405180910390fd5b5f6115cd83610c61565b90508073ffffffffffffffffffffffffffffffffffffffff168473ffffffffffffffffffffffffffffffffffffffff16148061160f575061160e818561117a565b5b8061164d57508373ffffffffffffffffffffffffffffffffffffffff1661163584610731565b73ffffffffffffffffffffffffffffffffffffffff16145b91505092915050565b8273ffffffffffffffffffffffffffffffffffffffff1661167682610c61565b73ffffffffffffffffffffffffffffffffffffffff16146116cc576040517f08c379a00000000000000000000000000000000000000000000000000000000081526004016116c39061374a565b60405180910390fd5b5f73ffffffffffffffffffffffffffffffffffffffff168273ffffffffffffffffffffffffffffffffffffffff160361173a576040517f08c379a0000000000000000000000000000000000000000000000000000000008152600401611731906137d8565b60405180910390fd5b611745838383611d08565b61174f5f826114c4565b600160035f8573ffffffffffffffffffffffffffffffffffffffff1673ffffffffffffffffffffffffffffffffffffffff1681526020019081526020015f205f82825461179c9190613391565b92505081905550600160035f8473ffffffffffffffffffffffffffffffffffffffff1673ffffffffffffffffffffffffffffffffffffffff1681526020019081526020015f205f8282546117f0919061335e565b925050819055508160025f8381526020019081526020015f205f6101000a81548173ffffffffffffffffffffffffffffffffffffffff021916908373ffffffffffffffffffffffffffffffffffffffff160217905550808273ffffffffffffffffffffffffffffffffffffffff168473ffffffffffffffffffffffffffffffffffffffff167fddf252ad1be2c89b69c2b068fc378daa952ba7f163c4a11628f55a4df523b3ef60405160405180910390a46118ac838383611d0d565b505050565b6118ca828260405180602001604052805f815250611d12565b5050565b6118d782611455565b611916576040517f08c379a000000000000000000000000000000000000000000000000000000000815260040161190d90613866565b60405180910390fd5b8060065f8481526020019081526020015f2090816119349190613262565b505050565b5f60075f9054906101000a900473ffffffffffffffffffffffffffffffffffffffff1690508160075f6101000a81548173ffffffffffffffffffffffffffffffffffffffff021916908373ffffffffffffffffffffffffffffffffffffffff1602179055508173ffffffffffffffffffffffffffffffffffffffff168173ffffffffffffffffffffffffffffffffffffffff167f8be0079c531659141344cd1fd0a4f28419497f9722a3daafe3b4186f6b6457e060405160405180910390a35050565b8173ffffffffffffffffffffffffffffffffffffffff168373ffffffffffffffffffffffffffffffffffffffff1603611a6a576040517f08c379a0000000000000000000000000000000000000000000000000000000008152600401611a61906138ce565b60405180910390fd5b8060055f8573ffffffffffffffffffffffffffffffffffffffff1673ffffffffffffffffffffffffffffffffffffffff1681526020019081526020015f205f8473ffffffffffffffffffffffffffffffffffffffff1673ffffffffffffffffffffffffffffffffffffffff1681526020019081526020015f205f6101000a81548160ff0219169083151502179055508173ffffffffffffffffffffffffffffffffffffffff168373ffffffffffffffffffffffffffffffffffffffff167f17307eab39ab6107e8899845ad3d59bd9653f200f220920489ca2b5937696c3183604051611b56919061239d565b60405180910390a3505050565b611b6e848484611656565b611b7a84848484611d6c565b611bb9576040517f08c379a0000000000000000000000000000000000000000000000000000000008152600401611bb09061395c565b60405180910390fd5b50505050565b6060611bca82611455565b611c09576040517f08c379a0000000000000000000000000000000000000000000000000000000008152600401611c00906139ea565b60405180910390fd5b5f60065f8481526020019081526020015f208054611c2690612dd1565b80601f0160208091040260200160405190810160405280929190818152602001828054611c5290612dd1565b8015611c9d5780601f10611c7457610100808354040283529160200191611c9d565b820191905f5260205f20905b815481529060010190602001808311611c8057829003601f168201915b505050505090505f611cad611eee565b90505f815103611cc1578192505050611d03565b5f82511115611cf5578082604051602001611cdd929190613a42565b60405160208183030381529060405292505050611d03565b611cfe84611f04565b925050505b919050565b505050565b505050565b611d1c8383611fa8565b611d285f848484611d6c565b611d67576040517f08c379a0000000000000000000000000000000000000000000000000000000008152600401611d5e9061395c565b60405180910390fd5b505050565b5f611d8c8473ffffffffffffffffffffffffffffffffffffffff16612177565b15611ee1578373ffffffffffffffffffffffffffffffffffffffff1663150b7a02611db56114bd565b8786866040518563ffffffff1660e01b8152600401611dd79493929190613a65565b6020604051808303815f875af1925050508015611e1257506040513d601f19601f82011682018060405250810190611e0f9190613ac3565b60015b611e91573d805f8114611e40576040519150601f19603f3d011682016040523d82523d5f602084013e611e45565b606091505b505f815103611e89576040517f08c379a0000000000000000000000000000000000000000000000000000000008152600401611e809061395c565b60405180910390fd5b805181602001fd5b63150b7a0260e01b7bffffffffffffffffffffffffffffffffffffffffffffffffffffffff1916817bffffffffffffffffffffffffffffffffffffffffffffffffffffffff191614915050611ee6565b600190505b949350505050565b606060405180602001604052805f815250905090565b6060611f0f82611455565b611f4e576040517f08c379a0000000000000000000000000000000000000000000000000000000008152600401611f4590613b5e565b60405180910390fd5b5f611f57611eee565b90505f815111611f755760405180602001604052805f815250611fa0565b80611f7f84612199565b604051602001611f90929190613a42565b6040516020818303038152906040525b915050919050565b5f73ffffffffffffffffffffffffffffffffffffffff168273ffffffffffffffffffffffffffffffffffffffff1603612016576040517f08c379a000000000000000000000000000000000000000000000000000000000815260040161200d90613bc6565b60405180910390fd5b61201f81611455565b1561205f576040517f08c379a000000000000000000000000000000000000000000000000000000000815260040161205690613c2e565b60405180910390fd5b61206a5f8383611d08565b600160035f8473ffffffffffffffffffffffffffffffffffffffff1673ffffffffffffffffffffffffffffffffffffffff1681526020019081526020015f205f8282546120b7919061335e565b925050819055508160025f8381526020019081526020015f205f6101000a81548173ffffffffffffffffffffffffffffffffffffffff021916908373ffffffffffffffffffffffffffffffffffffffff160217905550808273ffffffffffffffffffffffffffffffffffffffff165f73ffffffffffffffffffffffffffffffffffffffff167fddf252ad1be2c89b69c2b068fc378daa952ba7f163c4a11628f55a4df523b3ef60405160405180910390a46121735f8383611d0d565b5050565b5f808273ffffffffffffffffffffffffffffffffffffffff163b119050919050565b60605f82036121df576040518060400160405280600181526020017f300000000000000000000000000000000000000000000000000000000000000081525090506122ed565b5f8290505f5b5f821461220e5780806121f790613c4c565b915050600a826122079190613cc0565b91506121e5565b5f8167ffffffffffffffff8111156122295761222861262c565b5b6040519080825280601f01601f19166020018201604052801561225b5781602001600182028036833780820191505090505b5090505b5f85146122e6576001826122739190613391565b9150600a856122829190613cf0565b603061228e919061335e565b60f81b8183815181106122a4576122a36130a1565b5b60200101907effffffffffffffffffffffffffffffffffffffffffffffffffffffffffffff191690815f1a905350600a856122df9190613cc0565b945061225f565b8093505050505b919050565b5f604051905090565b5f80fd5b5f80fd5b5f7fffffffff0000000000000000000000000000000000000000000000000000000082169050919050565b61233781612303565b8114612341575f80fd5b50565b5f813590506123528161232e565b92915050565b5f6020828403121561236d5761236c6122fb565b5b5f61237a84828501612344565b91505092915050565b5f8115159050919050565b61239781612383565b82525050565b5f6020820190506123b05f83018461238e565b92915050565b5f81519050919050565b5f82825260208201905092915050565b8281835e5f83830152505050565b5f601f19601f8301169050919050565b5f6123f8826123b6565b61240281856123c0565b93506124128185602086016123d0565b61241b816123de565b840191505092915050565b5f6020820190508181035f83015261243e81846123ee565b905092915050565b5f819050919050565b61245881612446565b8114612462575f80fd5b50565b5f813590506124738161244f565b92915050565b5f6020828403121561248e5761248d6122fb565b5b5f61249b84828501612465565b91505092915050565b5f73ffffffffffffffffffffffffffffffffffffffff82169050919050565b5f6124cd826124a4565b9050919050565b6124dd816124c3565b82525050565b5f6020820190506124f65f8301846124d4565b92915050565b612505816124c3565b811461250f575f80fd5b50565b5f81359050612520816124fc565b92915050565b5f806040838503121561253c5761253b6122fb565b5b5f61254985828601612512565b925050602061255a85828601612465565b9150509250929050565b5f819050919050565b5f61258761258261257d846124a4565b612564565b6124a4565b9050919050565b5f6125988261256d565b9050919050565b5f6125a98261258e565b9050919050565b6125b98161259f565b82525050565b5f6020820190506125d25f8301846125b0565b92915050565b5f805f606084860312156125ef576125ee6122fb565b5b5f6125fc86828701612512565b935050602061260d86828701612512565b925050604061261e86828701612465565b9150509250925092565b5f80fd5b7f4e487b71000000000000000000000000000000000000000000000000000000005f52604160045260245ffd5b612662826123de565b810181811067ffffffffffffffff821117156126815761268061262c565b5b80604052505050565b5f6126936122f2565b905061269f8282612659565b919050565b5f67ffffffffffffffff8211156126be576126bd61262c565b5b602082029050602081019050919050565b5f80fd5b5f6126e56126e0846126a4565b61268a565b90508083825260208201905060208402830185811115612708576127076126cf565b5b835b81811015612731578061271d8882612465565b84526020840193505060208101905061270a565b5050509392505050565b5f82601f83011261274f5761274e612628565b5b813561275f8482602086016126d3565b91505092915050565b5f67ffffffffffffffff8211156127825761278161262c565b5b602082029050602081019050919050565b5f80fd5b5f67ffffffffffffffff8211156127b1576127b061262c565b5b6127ba826123de565b9050602081019050919050565b828183375f83830152505050565b5f6127e76127e284612797565b61268a565b90508281526020810184848401111561280357612802612793565b5b61280e8482856127c7565b509392505050565b5f82601f83011261282a57612829612628565b5b813561283a8482602086016127d5565b91505092915050565b5f61285561285084612768565b61268a565b90508083825260208201905060208402830185811115612878576128776126cf565b5b835b818110156128bf57803567ffffffffffffffff81111561289d5761289c612628565b5b8086016128aa8982612816565b8552602085019450505060208101905061287a565b5050509392505050565b5f82601f8301126128dd576128dc612628565b5b81356128ed848260208601612843565b91505092915050565b5f805f806080858703121561290e5761290d6122fb565b5b5f61291b87828801612512565b945050602085013567ffffffffffffffff81111561293c5761293b6122ff565b5b6129488782880161273b565b935050604085013567ffffffffffffffff811115612969576129686122ff565b5b612975878288016128c9565b925050606061298687828801612512565b91505092959194509250565b61299b81612446565b82525050565b5f6020820190506129b45f830184612992565b92915050565b5f80fd5b5f8083601f8401126129d3576129d2612628565b5b8235905067ffffffffffffffff8111156129f0576129ef6129ba565b5b602083019150836001820283011115612a0c57612a0b6126cf565b5b9250929050565b5f8060208385031215612a2957612a286122fb565b5b5f83013567ffffffffffffffff811115612a4657612a456122ff565b5b612a52858286016129be565b92509250509250929050565b5f81519050919050565b5f82825260208201905092915050565b5f612a8282612a5e565b612a8c8185612a68565b9350612a9c8185602086016123d0565b612aa5816123de565b840191505092915050565b5f604082019050612ac35f83018561238e565b8181036020830152612ad58184612a78565b90509392505050565b5f60208284031215612af357612af26122fb565b5b5f612b0084828501612512565b91505092915050565b5f819050919050565b612b1b81612b09565b82525050565b5f602082019050612b345f830184612b12565b92915050565b612b4381612b09565b8114612b4d575f80fd5b50565b5f81359050612b5e81612b3a565b92915050565b5f8060408385031215612b7a57612b796122fb565b5b5f612b8785828601612b50565b9250506020612b9885828601612465565b9150509250929050565b612bab81612383565b8114612bb5575f80fd5b50565b5f81359050612bc681612ba2565b92915050565b5f8060408385031215612be257612be16122fb565b5b5f612bef85828601612512565b9250506020612c0085828601612bb8565b9150509250929050565b5f67ffffffffffffffff821115612c2457612c2361262c565b5b612c2d826123de565b9050602081019050919050565b5f612c4c612c4784612c0a565b61268a565b905082815260208101848484011115612c6857612c67612793565b5b612c738482856127c7565b509392505050565b5f82601f830112612c8f57612c8e612628565b5b8135612c9f848260208601612c3a565b91505092915050565b5f805f8060808587031215612cc057612cbf6122fb565b5b5f612ccd87828801612512565b9450506020612cde87828801612512565b9350506040612cef87828801612465565b925050606085013567ffffffffffffffff811115612d1057612d0f6122ff565b5b612d1c87828801612c7b565b91505092959194509250565b5f8060408385031215612d3e57612d3d6122fb565b5b5f612d4b85828601612465565b9250506020612d5c85828601612465565b9150509250929050565b5f8060408385031215612d7c57612d7b6122fb565b5b5f612d8985828601612512565b9250506020612d9a85828601612512565b9150509250929050565b7f4e487b71000000000000000000000000000000000000000000000000000000005f52602260045260245ffd5b5f6002820490506001821680612de857607f821691505b602082108103612dfb57612dfa612da4565b5b50919050565b7f4552433732313a20617070726f76656420717565727920666f72206e6f6e65785f8201527f697374656e7420746f6b656e0000000000000000000000000000000000000000602082015250565b5f612e5b602c836123c0565b9150612e6682612e01565b604082019050919050565b5f6020820190508181035f830152612e8881612e4f565b9050919050565b7f4552433732313a20617070726f76616c20746f2063757272656e74206f776e655f8201527f7200000000000000000000000000000000000000000000000000000000000000602082015250565b5f612ee96021836123c0565b9150612ef482612e8f565b604082019050919050565b5f6020820190508181035f830152612f1681612edd565b9050919050565b7f4552433732313a20617070726f76652063616c6c6572206973206e6f74206f775f8201527f6e6572206e6f7220617070726f76656420666f7220616c6c0000000000000000602082015250565b5f612f776038836123c0565b9150612f8282612f1d565b604082019050919050565b5f6020820190508181035f830152612fa481612f6b565b9050919050565b7f4f776e61626c653a2063616c6c6572206973206e6f7420746865206f776e65725f82015250565b5f612fdf6020836123c0565b9150612fea82612fab565b602082019050919050565b5f6020820190508181035f83015261300c81612fd3565b9050919050565b7f4552433732313a207472616e736665722063616c6c6572206973206e6f74206f5f8201527f776e6572206e6f7220617070726f766564000000000000000000000000000000602082015250565b5f61306d6031836123c0565b915061307882613013565b604082019050919050565b5f6020820190508181035f83015261309a81613061565b9050919050565b7f4e487b71000000000000000000000000000000000000000000000000000000005f52603260045260245ffd5b5f819050815f5260205f209050919050565b5f6020601f8301049050919050565b5f82821b905092915050565b5f6008830261312a7fffffffffffffffffffffffffffffffffffffffffffffffffffffffffffffffff826130ef565b61313486836130ef565b95508019841693508086168417925050509392505050565b5f61316661316161315c84612446565b612564565b612446565b9050919050565b5f819050919050565b61317f8361314c565b61319361318b8261316d565b8484546130fb565b825550505050565b5f90565b6131a761319b565b6131b2818484613176565b505050565b5b818110156131d5576131ca5f8261319f565b6001810190506131b8565b5050565b601f82111561321a576131eb816130ce565b6131f4846130e0565b81016020851015613203578190505b61321761320f856130e0565b8301826131b7565b50505b505050565b5f82821c905092915050565b5f61323a5f198460080261321f565b1980831691505092915050565b5f613252838361322b565b9150826002028217905092915050565b61326b826123b6565b67ffffffffffffffff8111156132845761328361262c565b5b61328e8254612dd1565b6132998282856131d9565b5f60209050601f8311600181146132ca575f84156132b8578287015190505b6132c28582613247565b865550613329565b601f1984166132d8866130ce565b5f5b828110156132ff578489015182556001820191506020850194506020810190506132da565b8683101561331c5784890151613318601f89168261322b565b8355505b6001600288020188555050505b505050505050565b7f4e487b71000000000000000000000000000000000000000000000000000000005f52601160045260245ffd5b5f61336882612446565b915061337383612446565b925082820190508082111561338b5761338a613331565b5b92915050565b5f61339b82612446565b91506133a683612446565b92508282039050818111156133be576133bd613331565b5b92915050565b7f4552433732313a206f776e657220717565727920666f72206e6f6e65786973745f8201527f656e7420746f6b656e0000000000000000000000000000000000000000000000602082015250565b5f61341e6029836123c0565b9150613429826133c4565b604082019050919050565b5f6020820190508181035f83015261344b81613412565b9050919050565b7f4552433732313a2062616c616e636520717565727920666f7220746865207a655f8201527f726f206164647265737300000000000000000000000000000000000000000000602082015250565b5f6134ac602a836123c0565b91506134b782613452565b604082019050919050565b5f6020820190508181035f8301526134d9816134a0565b9050919050565b5f69ffffffffffffffffffff82169050919050565b6134fe816134e0565b8114613508575f80fd5b50565b5f81519050613519816134f5565b92915050565b5f8151905061352d81612b3a565b92915050565b5f815190506135418161244f565b92915050565b5f805f805f60a086880312156135605761355f6122fb565b5b5f61356d8882890161350b565b955050602061357e8882890161351f565b945050604061358f88828901613533565b93505060606135a088828901613533565b92505060806135b18882890161350b565b9150509295509295909350565b7f4f776e61626c653a206e6577206f776e657220697320746865207a65726f20615f8201527f6464726573730000000000000000000000000000000000000000000000000000602082015250565b5f6136186026836123c0565b9150613623826135be565b604082019050919050565b5f6020820190508181035f8301526136458161360c565b9050919050565b7f4552433732313a206f70657261746f7220717565727920666f72206e6f6e65785f8201527f697374656e7420746f6b656e0000000000000000000000000000000000000000602082015250565b5f6136a6602c836123c0565b91506136b18261364c565b604082019050919050565b5f6020820190508181035f8301526136d38161369a565b9050919050565b7f4552433732313a207472616e736665722066726f6d20696e636f7272656374205f8201527f6f776e6572000000000000000000000000000000000000000000000000000000602082015250565b5f6137346025836123c0565b915061373f826136da565b604082019050919050565b5f6020820190508181035f83015261376181613728565b9050919050565b7f4552433732313a207472616e7366657220746f20746865207a65726f206164645f8201527f7265737300000000000000000000000000000000000000000000000000000000602082015250565b5f6137c26024836123c0565b91506137cd82613768565b604082019050919050565b5f6020820190508181035f8301526137ef816137b6565b9050919050565b7f45524337323155524953746f726167653a2055524920736574206f66206e6f6e5f8201527f6578697374656e7420746f6b656e000000000000000000000000000000000000602082015250565b5f613850602e836123c0565b915061385b826137f6565b604082019050919050565b5f6020820190508181035f83015261387d81613844565b9050919050565b7f4552433732313a20617070726f766520746f2063616c6c6572000000000000005f82015250565b5f6138b86019836123c0565b91506138c382613884565b602082019050919050565b5f6020820190508181035f8301526138e5816138ac565b9050919050565b7f4552433732313a207472616e7366657220746f206e6f6e2045524337323152655f8201527f63656976657220696d706c656d656e7465720000000000000000000000000000602082015250565b5f6139466032836123c0565b9150613951826138ec565b604082019050919050565b5f6020820190508181035f8301526139738161393a565b9050919050565b7f45524337323155524953746f726167653a2055524920717565727920666f72205f8201527f6e6f6e6578697374656e7420746f6b656e000000000000000000000000000000602082015250565b5f6139d46031836123c0565b91506139df8261397a565b604082019050919050565b5f6020820190508181035f830152613a01816139c8565b9050919050565b5f81905092915050565b5f613a1c826123b6565b613a268185613a08565b9350613a368185602086016123d0565b80840191505092915050565b5f613a4d8285613a12565b9150613a598284613a12565b91508190509392505050565b5f608082019050613a785f8301876124d4565b613a8560208301866124d4565b613a926040830185612992565b8181036060830152613aa48184612a78565b905095945050505050565b5f81519050613abd8161232e565b92915050565b5f60208284031215613ad857613ad76122fb565b5b5f613ae584828501613aaf565b91505092915050565b7f4552433732314d657461646174613a2055524920717565727920666f72206e6f5f8201527f6e6578697374656e7420746f6b656e0000000000000000000000000000000000602082015250565b5f613b48602f836123c0565b9150613b5382613aee565b604082019050919050565b5f6020820190508181035f830152613b7581613b3c565b9050919050565b7f4552433732313a206d696e7420746f20746865207a65726f20616464726573735f82015250565b5f613bb06020836123c0565b9150613bbb82613b7c565b602082019050919050565b5f6020820190508181035f830152613bdd81613ba4565b9050919050565b7f4552433732313a20746f6b656e20616c7265616479206d696e746564000000005f82015250565b5f613c18601c836123c0565b9150613c2382613be4565b602082019050919050565b5f6020820190508181035f830152613c4581613c0c565b9050919050565b5f613c5682612446565b91507fffffffffffffffffffffffffffffffffffffffffffffffffffffffffffffffff8203613c8857613c87613331565b5b600182019050919050565b7f4e487b71000000000000000000000000000000000000000000000000000000005f52601260045260245ffd5b5f613cca82612446565b9150613cd583612446565b925082613ce557613ce4613c93565b5b828204905092915050565b5f613cfa82612446565b9150613d0583612446565b925082613d1557613d14613c93565b5b82820690509291505056fea2646970667358221220dff5377a364c59be8e34d839f71b10f0f808cb151c1d87a38e653d4660a936e464736f6c63430008190033",
			"opcodes": "PUSH1 0x80 PUSH1 0x40 MSTORE CALLVALUE DUP1 ISZERO PUSH2 0xF JUMPI PUSH0 DUP1 REVERT JUMPDEST POP PUSH1 0x40 MLOAD DUP1 PUSH1 0x40 ADD PUSH1 0x40 MSTORE DUP1 PUSH1 0x9 DUP2 MSTORE PUSH1 0x20 ADD PUSH32 0x5072696365747572650000000000000000000000000000000000000000000000 DUP2 MSTORE POP PUSH1 0x40 MLOAD DUP1 PUSH1 0x40 ADD PUSH1 0x40 MSTORE DUP1 PUSH1 0x7 DUP2 MSTORE PUSH1 0x20 ADD PUSH32 0x5052435455524500000000000000000000000000000000000000000000000000 DUP2 MSTORE POP DUP2 PUSH0 SWAP1 DUP2 PUSH2 0x8A SWAP2 SWAP1 PUSH2 0x3D3 JUMP JUMPDEST POP DUP1 PUSH1 0x1 SWAP1 DUP2 PUSH2 0x9A SWAP2 SWAP1 PUSH2 0x3D3 JUMP JUMPDEST POP POP POP PUSH2 0xB9 PUSH2 0xAE PUSH2 0xCF PUSH1 0x20 SHL PUSH1 0x20 SHR JUMP JUMPDEST PUSH2 0xD6 PUSH1 0x20 SHL PUSH1 0x20 SHR JUMP JUMPDEST PUSH3 0x15180 PUSH1 0xC DUP2 SWAP1 SSTORE POP TIMESTAMP PUSH1 0xD DUP2 SWAP1 SSTORE POP PUSH2 0x4A2 JUMP JUMPDEST PUSH0 CALLER SWAP1 POP SWAP1 JUMP JUMPDEST PUSH0 PUSH1 0x7 PUSH0 SWAP1 SLOAD SWAP1 PUSH2 0x100 EXP SWAP1 DIV PUSH20 0xFFFFFFFFFFFFFFFFFFFFFFFFFFFFFFFFFFFFFFFF AND SWAP1 POP DUP2 PUSH1 0x7 PUSH0 PUSH2 0x100 EXP DUP2 SLOAD DUP2 PUSH20 0xFFFFFFFFFFFFFFFFFFFFFFFFFFFFFFFFFFFFFFFF MUL NOT AND SWAP1 DUP4 PUSH20 0xFFFFFFFFFFFFFFFFFFFFFFFFFFFFFFFFFFFFFFFF AND MUL OR SWAP1 SSTORE POP DUP2 PUSH20 0xFFFFFFFFFFFFFFFFFFFFFFFFFFFFFFFFFFFFFFFF AND DUP2 PUSH20 0xFFFFFFFFFFFFFFFFFFFFFFFFFFFFFFFFFFFFFFFF AND PUSH32 0x8BE0079C531659141344CD1FD0A4F28419497F9722A3DAAFE3B4186F6B6457E0 PUSH1 0x40 MLOAD PUSH1 0x40 MLOAD DUP1 SWAP2 SUB SWAP1 LOG3 POP POP JUMP JUMPDEST PUSH0 DUP2 MLOAD SWAP1 POP SWAP2 SWAP1 POP JUMP JUMPDEST PUSH32 0x4E487B7100000000000000000000000000000000000000000000000000000000 PUSH0 MSTORE PUSH1 0x41 PUSH1 0x4 MSTORE PUSH1 0x24 PUSH0 REVERT JUMPDEST PUSH32 0x4E487B7100000000000000000000000000000000000000000000000000000000 PUSH0 MSTORE PUSH1 0x22 PUSH1 0x4 MSTORE PUSH1 0x24 PUSH0 REVERT JUMPDEST PUSH0 PUSH1 0x2 DUP3 DIV SWAP1 POP PUSH1 0x1 DUP3 AND DUP1 PUSH2 0x214 JUMPI PUSH1 0x7F DUP3 AND SWAP2 POP JUMPDEST PUSH1 0x20 DUP3 LT DUP2 SUB PUSH2 0x227 JUMPI PUSH2 0x226 PUSH2 0x1D0 JUMP JUMPDEST JUMPDEST POP SWAP2 SWAP1 POP JUMP JUMPDEST PUSH0 DUP2 SWAP1 POP DUP2 PUSH0 MSTORE PUSH1 0x20 PUSH0 KECCAK256 SWAP1 POP SWAP2 SWAP1 POP JUMP JUMPDEST PUSH0 PUSH1 0x20 PUSH1 0x1F DUP4 ADD DIV SWAP1 POP SWAP2 SWAP1 POP JUMP JUMPDEST PUSH0 DUP3 DUP3 SHL SWAP1 POP SWAP3 SWAP2 POP POP JUMP JUMPDEST PUSH0 PUSH1 0x8 DUP4 MUL PUSH2 0x289 PUSH32 0xFFFFFFFFFFFFFFFFFFFFFFFFFFFFFFFFFFFFFFFFFFFFFFFFFFFFFFFFFFFFFFFF DUP3 PUSH2 0x24E JUMP JUMPDEST PUSH2 0x293 DUP7 DUP4 PUSH2 0x24E JUMP JUMPDEST SWAP6 POP DUP1 NOT DUP5 AND SWAP4 POP DUP1 DUP7 AND DUP5 OR SWAP3 POP POP POP SWAP4 SWAP3 POP POP POP JUMP JUMPDEST PUSH0 DUP2 SWAP1 POP SWAP2 SWAP1 POP JUMP JUMPDEST PUSH0 DUP2 SWAP1 POP SWAP2 SWAP1 POP JUMP JUMPDEST PUSH0 PUSH2 0x2D7 PUSH2 0x2D2 PUSH2 0x2CD DUP5 PUSH2 0x2AB JUMP JUMPDEST PUSH2 0x2B4 JUMP JUMPDEST PUSH2 0x2AB JUMP JUMPDEST SWAP1 POP SWAP2 SWAP1 POP JUMP JUMPDEST PUSH0 DUP2 SWAP1 POP SWAP2 SWAP1 POP JUMP JUMPDEST PUSH2 0x2F0 DUP4 PUSH2 0x2BD JUMP JUMPDEST PUSH2 0x304 PUSH2 0x2FC DUP3 PUSH2 0x2DE JUMP JUMPDEST DUP5 DUP5 SLOAD PUSH2 0x25A JUMP JUMPDEST DUP3 SSTORE POP POP POP POP JUMP JUMPDEST PUSH0 SWAP1 JUMP JUMPDEST PUSH2 0x318 PUSH2 0x30C JUMP JUMPDEST PUSH2 0x323 DUP2 DUP5 DUP5 PUSH2 0x2E7 JUMP JUMPDEST POP POP POP JUMP JUMPDEST JUMPDEST DUP2 DUP2 LT ISZERO PUSH2 0x346 JUMPI PUSH2 0x33B PUSH0 DUP3 PUSH2 0x310 JUMP JUMPDEST PUSH1 0x1 DUP2 ADD SWAP1 POP PUSH2 0x329 JUMP JUMPDEST POP POP JUMP JUMPDEST PUSH1 0x1F DUP3 GT ISZERO PUSH2 0x38B JUMPI PUSH2 0x35C DUP2 PUSH2 0x22D JUMP JUMPDEST PUSH2 0x365 DUP5 PUSH2 0x23F JUMP JUMPDEST DUP2 ADD PUSH1 0x20 DUP6 LT ISZERO PUSH2 0x374 JUMPI DUP2 SWAP1 POP JUMPDEST PUSH2 0x388 PUSH2 0x380 DUP6 PUSH2 0x23F JUMP JUMPDEST DUP4 ADD DUP3 PUSH2 0x328 JUMP JUMPDEST POP POP JUMPDEST POP POP POP JUMP JUMPDEST PUSH0 DUP3 DUP3 SHR SWAP1 POP SWAP3 SWAP2 POP POP JUMP JUMPDEST PUSH0 PUSH2 0x3AB PUSH0 NOT DUP5 PUSH1 0x8 MUL PUSH2 0x390 JUMP JUMPDEST NOT DUP1 DUP4 AND SWAP2 POP POP SWAP3 SWAP2 POP POP JUMP JUMPDEST PUSH0 PUSH2 0x3C3 DUP4 DUP4 PUSH2 0x39C JUMP JUMPDEST SWAP2 POP DUP3 PUSH1 0x2 MUL DUP3 OR SWAP1 POP SWAP3 SWAP2 POP POP JUMP JUMPDEST PUSH2 0x3DC DUP3 PUSH2 0x199 JUMP JUMPDEST PUSH8 0xFFFFFFFFFFFFFFFF DUP2 GT ISZERO PUSH2 0x3F5 JUMPI PUSH2 0x3F4 PUSH2 0x1A3 JUMP JUMPDEST JUMPDEST PUSH2 0x3FF DUP3 SLOAD PUSH2 0x1FD JUMP JUMPDEST PUSH2 0x40A DUP3 DUP3 DUP6 PUSH2 0x34A JUMP JUMPDEST PUSH0 PUSH1 0x20 SWAP1 POP PUSH1 0x1F DUP4 GT PUSH1 0x1 DUP2 EQ PUSH2 0x43B JUMPI PUSH0 DUP5 ISZERO PUSH2 0x429 JUMPI DUP3 DUP8 ADD MLOAD SWAP1 POP JUMPDEST PUSH2 0x433 DUP6 DUP3 PUSH2 0x3B8 JUMP JUMPDEST DUP7 SSTORE POP PUSH2 0x49A JUMP JUMPDEST PUSH1 0x1F NOT DUP5 AND PUSH2 0x449 DUP7 PUSH2 0x22D JUMP JUMPDEST PUSH0 JUMPDEST DUP3 DUP2 LT ISZERO PUSH2 0x470 JUMPI DUP5 DUP10 ADD MLOAD DUP3 SSTORE PUSH1 0x1 DUP3 ADD SWAP2 POP PUSH1 0x20 DUP6 ADD SWAP5 POP PUSH1 0x20 DUP2 ADD SWAP1 POP PUSH2 0x44B JUMP JUMPDEST DUP7 DUP4 LT ISZERO PUSH2 0x48D JUMPI DUP5 DUP10 ADD MLOAD PUSH2 0x489 PUSH1 0x1F DUP10 AND DUP3 PUSH2 0x39C JUMP JUMPDEST DUP4 SSTORE POP JUMPDEST PUSH1 0x1 PUSH1 0x2 DUP9 MUL ADD DUP9 SSTORE POP POP POP JUMPDEST POP POP POP POP POP POP JUMP JUMPDEST PUSH2 0x3D56 DUP1 PUSH2 0x4AF PUSH0 CODECOPY PUSH0 RETURN INVALID PUSH1 0x80 PUSH1 0x40 MSTORE CALLVALUE DUP1 ISZERO PUSH2 0xF JUMPI PUSH0 DUP1 REVERT JUMPDEST POP PUSH1 0x4 CALLDATASIZE LT PUSH2 0x1C2 JUMPI PUSH0 CALLDATALOAD PUSH1 0xE0 SHR DUP1 PUSH4 0x715018A6 GT PUSH2 0xF7 JUMPI DUP1 PUSH4 0xB88D4FDE GT PUSH2 0x95 JUMPI DUP1 PUSH4 0xE4E47C3E GT PUSH2 0x6F JUMPI DUP1 PUSH4 0xE4E47C3E EQ PUSH2 0x53B JUMPI DUP1 PUSH4 0xE985E9C5 EQ PUSH2 0x56B JUMPI DUP1 PUSH4 0xF243D0A6 EQ PUSH2 0x59B JUMPI DUP1 PUSH4 0xF2FDE38B EQ PUSH2 0x5A5 JUMPI PUSH2 0x1C2 JUMP JUMPDEST DUP1 PUSH4 0xB88D4FDE EQ PUSH2 0x4BF JUMPI DUP1 PUSH4 0xC87B56DD EQ PUSH2 0x4DB JUMPI DUP1 PUSH4 0xD9A4E193 EQ PUSH2 0x50B JUMPI PUSH2 0x1C2 JUMP JUMPDEST DUP1 PUSH4 0x9309D80D GT PUSH2 0xD1 JUMPI DUP1 PUSH4 0x9309D80D EQ PUSH2 0x437 JUMPI DUP1 PUSH4 0x947A36FB EQ PUSH2 0x467 JUMPI DUP1 PUSH4 0x95D89B41 EQ PUSH2 0x485 JUMPI DUP1 PUSH4 0xA22CB465 EQ PUSH2 0x4A3 JUMPI PUSH2 0x1C2 JUMP JUMPDEST DUP1 PUSH4 0x715018A6 EQ PUSH2 0x3DF JUMPI DUP1 PUSH4 0x739EBD03 EQ PUSH2 0x3E9 JUMPI DUP1 PUSH4 0x8DA5CB5B EQ PUSH2 0x419 JUMPI PUSH2 0x1C2 JUMP JUMPDEST DUP1 PUSH4 0x2E1F6554 GT PUSH2 0x164 JUMPI DUP1 PUSH4 0x4585E33B GT PUSH2 0x13E JUMPI DUP1 PUSH4 0x4585E33B EQ PUSH2 0x332 JUMPI DUP1 PUSH4 0x6352211E EQ PUSH2 0x34E JUMPI DUP1 PUSH4 0x6E04FF0D EQ PUSH2 0x37E JUMPI DUP1 PUSH4 0x70A08231 EQ PUSH2 0x3AF JUMPI PUSH2 0x1C2 JUMP JUMPDEST DUP1 PUSH4 0x2E1F6554 EQ PUSH2 0x2C8 JUMPI DUP1 PUSH4 0x3F3B3B27 EQ PUSH2 0x2F8 JUMPI DUP1 PUSH4 0x42842E0E EQ PUSH2 0x316 JUMPI PUSH2 0x1C2 JUMP JUMPDEST DUP1 PUSH4 0x95EA7B3 GT PUSH2 0x1A0 JUMPI DUP1 PUSH4 0x95EA7B3 EQ PUSH2 0x244 JUMPI DUP1 PUSH4 0x10C7F0B9 EQ PUSH2 0x260 JUMPI DUP1 PUSH4 0x22A90082 EQ PUSH2 0x290 JUMPI DUP1 PUSH4 0x23B872DD EQ PUSH2 0x2AC JUMPI PUSH2 0x1C2 JUMP JUMPDEST DUP1 PUSH4 0x1FFC9A7 EQ PUSH2 0x1C6 JUMPI DUP1 PUSH4 0x6FDDE03 EQ PUSH2 0x1F6 JUMPI DUP1 PUSH4 0x81812FC EQ PUSH2 0x214 JUMPI JUMPDEST PUSH0 DUP1 REVERT JUMPDEST PUSH2 0x1E0 PUSH1 0x4 DUP1 CALLDATASIZE SUB DUP2 ADD SWAP1 PUSH2 0x1DB SWAP2 SWAP1 PUSH2 0x2358 JUMP JUMPDEST PUSH2 0x5C1 JUMP JUMPDEST PUSH1 0x40 MLOAD PUSH2 0x1ED SWAP2 SWAP1 PUSH2 0x239D JUMP JUMPDEST PUSH1 0x40 MLOAD DUP1 SWAP2 SUB SWAP1 RETURN JUMPDEST PUSH2 0x1FE PUSH2 0x6A2 JUMP JUMPDEST PUSH1 0x40 MLOAD PUSH2 0x20B SWAP2 SWAP1 PUSH2 0x2426 JUMP JUMPDEST PUSH1 0x40 MLOAD DUP1 SWAP2 SUB SWAP1 RETURN JUMPDEST PUSH2 0x22E PUSH1 0x4 DUP1 CALLDATASIZE SUB DUP2 ADD SWAP1 PUSH2 0x229 SWAP2 SWAP1 PUSH2 0x2479 JUMP JUMPDEST PUSH2 0x731 JUMP JUMPDEST PUSH1 0x40 MLOAD PUSH2 0x23B SWAP2 SWAP1 PUSH2 0x24E3 JUMP JUMPDEST PUSH1 0x40 MLOAD DUP1 SWAP2 SUB SWAP1 RETURN JUMPDEST PUSH2 0x25E PUSH1 0x4 DUP1 CALLDATASIZE SUB DUP2 ADD SWAP1 PUSH2 0x259 SWAP2 SWAP1 PUSH2 0x2526 JUMP JUMPDEST PUSH2 0x7B2 JUMP JUMPDEST STOP JUMPDEST PUSH2 0x27A PUSH1 0x4 DUP1 CALLDATASIZE SUB DUP2 ADD SWAP1 PUSH2 0x275 SWAP2 SWAP1 PUSH2 0x2479 JUMP JUMPDEST PUSH2 0x8C8 JUMP JUMPDEST PUSH1 0x40 MLOAD PUSH2 0x287 SWAP2 SWAP1 PUSH2 0x25BF JUMP JUMPDEST PUSH1 0x40 MLOAD DUP1 SWAP2 SUB SWAP1 RETURN JUMPDEST PUSH2 0x2AA PUSH1 0x4 DUP1 CALLDATASIZE SUB DUP2 ADD SWAP1 PUSH2 0x2A5 SWAP2 SWAP1 PUSH2 0x2479 JUMP JUMPDEST PUSH2 0x8F8 JUMP JUMPDEST STOP JUMPDEST PUSH2 0x2C6 PUSH1 0x4 DUP1 CALLDATASIZE SUB DUP2 ADD SWAP1 PUSH2 0x2C1 SWAP2 SWAP1 PUSH2 0x25D8 JUMP JUMPDEST PUSH2 0x97E JUMP JUMPDEST STOP JUMPDEST PUSH2 0x2E2 PUSH1 0x4 DUP1 CALLDATASIZE SUB DUP2 ADD SWAP1 PUSH2 0x2DD SWAP2 SWAP1 PUSH2 0x28F6 JUMP JUMPDEST PUSH2 0x9DE JUMP JUMPDEST PUSH1 0x40 MLOAD PUSH2 0x2EF SWAP2 SWAP1 PUSH2 0x29A1 JUMP JUMPDEST PUSH1 0x40 MLOAD DUP1 SWAP2 SUB SWAP1 RETURN JUMPDEST PUSH2 0x300 PUSH2 0xC11 JUMP JUMPDEST PUSH1 0x40 MLOAD PUSH2 0x30D SWAP2 SWAP1 PUSH2 0x29A1 JUMP JUMPDEST PUSH1 0x40 MLOAD DUP1 SWAP2 SUB SWAP1 RETURN JUMPDEST PUSH2 0x330 PUSH1 0x4 DUP1 CALLDATASIZE SUB DUP2 ADD SWAP1 PUSH2 0x32B SWAP2 SWAP1 PUSH2 0x25D8 JUMP JUMPDEST PUSH2 0xC17 JUMP JUMPDEST STOP JUMPDEST PUSH2 0x34C PUSH1 0x4 DUP1 CALLDATASIZE SUB DUP2 ADD SWAP1 PUSH2 0x347 SWAP2 SWAP1 PUSH2 0x2A13 JUMP JUMPDEST PUSH2 0xC36 JUMP JUMPDEST STOP JUMPDEST PUSH2 0x368 PUSH1 0x4 DUP1 CALLDATASIZE SUB DUP2 ADD SWAP1 PUSH2 0x363 SWAP2 SWAP1 PUSH2 0x2479 JUMP JUMPDEST PUSH2 0xC61 JUMP JUMPDEST PUSH1 0x40 MLOAD PUSH2 0x375 SWAP2 SWAP1 PUSH2 0x24E3 JUMP JUMPDEST PUSH1 0x40 MLOAD DUP1 SWAP2 SUB SWAP1 RETURN JUMPDEST PUSH2 0x398 PUSH1 0x4 DUP1 CALLDATASIZE SUB DUP2 ADD SWAP1 PUSH2 0x393 SWAP2 SWAP1 PUSH2 0x2A13 JUMP JUMPDEST PUSH2 0xD0D JUMP JUMPDEST PUSH1 0x40 MLOAD PUSH2 0x3A6 SWAP3 SWAP2 SWAP1 PUSH2 0x2AB0 JUMP JUMPDEST PUSH1 0x40 MLOAD DUP1 SWAP2 SUB SWAP1 RETURN JUMPDEST PUSH2 0x3C9 PUSH1 0x4 DUP1 CALLDATASIZE SUB DUP2 ADD SWAP1 PUSH2 0x3C4 SWAP2 SWAP1 PUSH2 0x2ADE JUMP JUMPDEST PUSH2 0xD2B JUMP JUMPDEST PUSH1 0x40 MLOAD PUSH2 0x3D6 SWAP2 SWAP1 PUSH2 0x29A1 JUMP JUMPDEST PUSH1 0x40 MLOAD DUP1 SWAP2 SUB SWAP1 RETURN JUMPDEST PUSH2 0x3E7 PUSH2 0xDDF JUMP JUMPDEST STOP JUMPDEST PUSH2 0x403 PUSH1 0x4 DUP1 CALLDATASIZE SUB DUP2 ADD SWAP1 PUSH2 0x3FE SWAP2 SWAP1 PUSH2 0x2479 JUMP JUMPDEST PUSH2 0xE66 JUMP JUMPDEST PUSH1 0x40 MLOAD PUSH2 0x410 SWAP2 SWAP1 PUSH2 0x2B21 JUMP JUMPDEST PUSH1 0x40 MLOAD DUP1 SWAP2 SUB SWAP1 RETURN JUMPDEST PUSH2 0x421 PUSH2 0xF14 JUMP JUMPDEST PUSH1 0x40 MLOAD PUSH2 0x42E SWAP2 SWAP1 PUSH2 0x24E3 JUMP JUMPDEST PUSH1 0x40 MLOAD DUP1 SWAP2 SUB SWAP1 RETURN JUMPDEST PUSH2 0x451 PUSH1 0x4 DUP1 CALLDATASIZE SUB DUP2 ADD SWAP1 PUSH2 0x44C SWAP2 SWAP1 PUSH2 0x2B64 JUMP JUMPDEST PUSH2 0xF3C JUMP JUMPDEST PUSH1 0x40 MLOAD PUSH2 0x45E SWAP2 SWAP1 PUSH2 0x29A1 JUMP JUMPDEST PUSH1 0x40 MLOAD DUP1 SWAP2 SUB SWAP1 RETURN JUMPDEST PUSH2 0x46F PUSH2 0xF94 JUMP JUMPDEST PUSH1 0x40 MLOAD PUSH2 0x47C SWAP2 SWAP1 PUSH2 0x29A1 JUMP JUMPDEST PUSH1 0x40 MLOAD DUP1 SWAP2 SUB SWAP1 RETURN JUMPDEST PUSH2 0x48D PUSH2 0xF9A JUMP JUMPDEST PUSH1 0x40 MLOAD PUSH2 0x49A SWAP2 SWAP1 PUSH2 0x2426 JUMP JUMPDEST PUSH1 0x40 MLOAD DUP1 SWAP2 SUB SWAP1 RETURN JUMPDEST PUSH2 0x4BD PUSH1 0x4 DUP1 CALLDATASIZE SUB DUP2 ADD SWAP1 PUSH2 0x4B8 SWAP2 SWAP1 PUSH2 0x2BCC JUMP JUMPDEST PUSH2 0x102A JUMP JUMPDEST STOP JUMPDEST PUSH2 0x4D9 PUSH1 0x4 DUP1 CALLDATASIZE SUB DUP2 ADD SWAP1 PUSH2 0x4D4 SWAP2 SWAP1 PUSH2 0x2CA8 JUMP JUMPDEST PUSH2 0x1040 JUMP JUMPDEST STOP JUMPDEST PUSH2 0x4F5 PUSH1 0x4 DUP1 CALLDATASIZE SUB DUP2 ADD SWAP1 PUSH2 0x4F0 SWAP2 SWAP1 PUSH2 0x2479 JUMP JUMPDEST PUSH2 0x10A2 JUMP JUMPDEST PUSH1 0x40 MLOAD PUSH2 0x502 SWAP2 SWAP1 PUSH2 0x2426 JUMP JUMPDEST PUSH1 0x40 MLOAD DUP1 SWAP2 SUB SWAP1 RETURN JUMPDEST PUSH2 0x525 PUSH1 0x4 DUP1 CALLDATASIZE SUB DUP2 ADD SWAP1 PUSH2 0x520 SWAP2 SWAP1 PUSH2 0x2D28 JUMP JUMPDEST PUSH2 0x10B4 JUMP JUMPDEST PUSH1 0x40 MLOAD PUSH2 0x532 SWAP2 SWAP1 PUSH2 0x2426 JUMP JUMPDEST PUSH1 0x40 MLOAD DUP1 SWAP2 SUB SWAP1 RETURN JUMPDEST PUSH2 0x555 PUSH1 0x4 DUP1 CALLDATASIZE SUB DUP2 ADD SWAP1 PUSH2 0x550 SWAP2 SWAP1 PUSH2 0x2D28 JUMP JUMPDEST PUSH2 0x115A JUMP JUMPDEST PUSH1 0x40 MLOAD PUSH2 0x562 SWAP2 SWAP1 PUSH2 0x29A1 JUMP JUMPDEST PUSH1 0x40 MLOAD DUP1 SWAP2 SUB SWAP1 RETURN JUMPDEST PUSH2 0x585 PUSH1 0x4 DUP1 CALLDATASIZE SUB DUP2 ADD SWAP1 PUSH2 0x580 SWAP2 SWAP1 PUSH2 0x2D66 JUMP JUMPDEST PUSH2 0x117A JUMP JUMPDEST PUSH1 0x40 MLOAD PUSH2 0x592 SWAP2 SWAP1 PUSH2 0x239D JUMP JUMPDEST PUSH1 0x40 MLOAD DUP1 SWAP2 SUB SWAP1 RETURN JUMPDEST PUSH2 0x5A3 PUSH2 0x1208 JUMP JUMPDEST STOP JUMPDEST PUSH2 0x5BF PUSH1 0x4 DUP1 CALLDATASIZE SUB DUP2 ADD SWAP1 PUSH2 0x5BA SWAP2 SWAP1 PUSH2 0x2ADE JUMP JUMPDEST PUSH2 0x12F6 JUMP JUMPDEST STOP JUMPDEST PUSH0 PUSH32 0x80AC58CD00000000000000000000000000000000000000000000000000000000 PUSH28 0xFFFFFFFFFFFFFFFFFFFFFFFFFFFFFFFFFFFFFFFFFFFFFFFFFFFFFFFF NOT AND DUP3 PUSH28 0xFFFFFFFFFFFFFFFFFFFFFFFFFFFFFFFFFFFFFFFFFFFFFFFFFFFFFFFF NOT AND EQ DUP1 PUSH2 0x68B JUMPI POP PUSH32 0x5B5E139F00000000000000000000000000000000000000000000000000000000 PUSH28 0xFFFFFFFFFFFFFFFFFFFFFFFFFFFFFFFFFFFFFFFFFFFFFFFFFFFFFFFF NOT AND DUP3 PUSH28 0xFFFFFFFFFFFFFFFFFFFFFFFFFFFFFFFFFFFFFFFFFFFFFFFFFFFFFFFF NOT AND EQ JUMPDEST DUP1 PUSH2 0x69B JUMPI POP PUSH2 0x69A DUP3 PUSH2 0x13EC JUMP JUMPDEST JUMPDEST SWAP1 POP SWAP2 SWAP1 POP JUMP JUMPDEST PUSH1 0x60 PUSH0 DUP1 SLOAD PUSH2 0x6B0 SWAP1 PUSH2 0x2DD1 JUMP JUMPDEST DUP1 PUSH1 0x1F ADD PUSH1 0x20 DUP1 SWAP2 DIV MUL PUSH1 0x20 ADD PUSH1 0x40 MLOAD SWAP1 DUP2 ADD PUSH1 0x40 MSTORE DUP1 SWAP3 SWAP2 SWAP1 DUP2 DUP2 MSTORE PUSH1 0x20 ADD DUP3 DUP1 SLOAD PUSH2 0x6DC SWAP1 PUSH2 0x2DD1 JUMP JUMPDEST DUP1 ISZERO PUSH2 0x727 JUMPI DUP1 PUSH1 0x1F LT PUSH2 0x6FE JUMPI PUSH2 0x100 DUP1 DUP4 SLOAD DIV MUL DUP4 MSTORE SWAP2 PUSH1 0x20 ADD SWAP2 PUSH2 0x727 JUMP JUMPDEST DUP3 ADD SWAP2 SWAP1 PUSH0 MSTORE PUSH1 0x20 PUSH0 KECCAK256 SWAP1 JUMPDEST DUP2 SLOAD DUP2 MSTORE SWAP1 PUSH1 0x1 ADD SWAP1 PUSH1 0x20 ADD DUP1 DUP4 GT PUSH2 0x70A JUMPI DUP3 SWAP1 SUB PUSH1 0x1F AND DUP3 ADD SWAP2 JUMPDEST POP POP POP POP POP SWAP1 POP SWAP1 JUMP JUMPDEST PUSH0 PUSH2 0x73B DUP3 PUSH2 0x1455 JUMP JUMPDEST PUSH2 0x77A JUMPI PUSH1 0x40 MLOAD PUSH32 0x8C379A000000000000000000000000000000000000000000000000000000000 DUP2 MSTORE PUSH1 0x4 ADD PUSH2 0x771 SWAP1 PUSH2 0x2E71 JUMP JUMPDEST PUSH1 0x40 MLOAD DUP1 SWAP2 SUB SWAP1 REVERT JUMPDEST PUSH1 0x4 PUSH0 DUP4 DUP2 MSTORE PUSH1 0x20 ADD SWAP1 DUP2 MSTORE PUSH1 0x20 ADD PUSH0 KECCAK256 PUSH0 SWAP1 SLOAD SWAP1 PUSH2 0x100 EXP SWAP1 DIV PUSH20 0xFFFFFFFFFFFFFFFFFFFFFFFFFFFFFFFFFFFFFFFF AND SWAP1 POP SWAP2 SWAP1 POP JUMP JUMPDEST PUSH0 PUSH2 0x7BC DUP3 PUSH2 0xC61 JUMP JUMPDEST SWAP1 POP DUP1 PUSH20 0xFFFFFFFFFFFFFFFFFFFFFFFFFFFFFFFFFFFFFFFF AND DUP4 PUSH20 0xFFFFFFFFFFFFFFFFFFFFFFFFFFFFFFFFFFFFFFFF AND SUB PUSH2 0x82C JUMPI PUSH1 0x40 MLOAD PUSH32 0x8C379A000000000000000000000000000000000000000000000000000000000 DUP2 MSTORE PUSH1 0x4 ADD PUSH2 0x823 SWAP1 PUSH2 0x2EFF JUMP JUMPDEST PUSH1 0x40 MLOAD DUP1 SWAP2 SUB SWAP1 REVERT JUMPDEST DUP1 PUSH20 0xFFFFFFFFFFFFFFFFFFFFFFFFFFFFFFFFFFFFFFFF AND PUSH2 0x84B PUSH2 0x14BD JUMP JUMPDEST PUSH20 0xFFFFFFFFFFFFFFFFFFFFFFFFFFFFFFFFFFFFFFFF AND EQ DUP1 PUSH2 0x87A JUMPI POP PUSH2 0x879 DUP2 PUSH2 0x874 PUSH2 0x14BD JUMP JUMPDEST PUSH2 0x117A JUMP JUMPDEST JUMPDEST PUSH2 0x8B9 JUMPI PUSH1 0x40 MLOAD PUSH32 0x8C379A000000000000000000000000000000000000000000000000000000000 DUP2 MSTORE PUSH1 0x4 ADD PUSH2 0x8B0 SWAP1 PUSH2 0x2F8D JUMP JUMPDEST PUSH1 0x40 MLOAD DUP1 SWAP2 SUB SWAP1 REVERT JUMPDEST PUSH2 0x8C3 DUP4 DUP4 PUSH2 0x14C4 JUMP JUMPDEST POP POP POP JUMP JUMPDEST PUSH1 0xB PUSH1 0x20 MSTORE DUP1 PUSH0 MSTORE PUSH1 0x40 PUSH0 KECCAK256 PUSH0 SWAP2 POP SLOAD SWAP1 PUSH2 0x100 EXP SWAP1 DIV PUSH20 0xFFFFFFFFFFFFFFFFFFFFFFFFFFFFFFFFFFFFFFFF AND DUP2 JUMP JUMPDEST PUSH2 0x900 PUSH2 0x14BD JUMP JUMPDEST PUSH20 0xFFFFFFFFFFFFFFFFFFFFFFFFFFFFFFFFFFFFFFFF AND PUSH2 0x91E PUSH2 0xF14 JUMP JUMPDEST PUSH20 0xFFFFFFFFFFFFFFFFFFFFFFFFFFFFFFFFFFFFFFFF AND EQ PUSH2 0x974 JUMPI PUSH1 0x40 MLOAD PUSH32 0x8C379A000000000000000000000000000000000000000000000000000000000 DUP2 MSTORE PUSH1 0x4 ADD PUSH2 0x96B SWAP1 PUSH2 0x2FF5 JUMP JUMPDEST PUSH1 0x40 MLOAD DUP1 SWAP2 SUB SWAP1 REVERT JUMPDEST DUP1 PUSH1 0xC DUP2 SWAP1 SSTORE POP POP JUMP JUMPDEST PUSH2 0x98F PUSH2 0x989 PUSH2 0x14BD JUMP JUMPDEST DUP3 PUSH2 0x157A JUMP JUMPDEST PUSH2 0x9CE JUMPI PUSH1 0x40 MLOAD PUSH32 0x8C379A000000000000000000000000000000000000000000000000000000000 DUP2 MSTORE PUSH1 0x4 ADD PUSH2 0x9C5 SWAP1 PUSH2 0x3083 JUMP JUMPDEST PUSH1 0x40 MLOAD DUP1 SWAP2 SUB SWAP1 REVERT JUMPDEST PUSH2 0x9D9 DUP4 DUP4 DUP4 PUSH2 0x1656 JUMP JUMPDEST POP POP POP JUMP JUMPDEST PUSH0 DUP1 PUSH1 0x8 SLOAD SWAP1 POP PUSH0 JUMPDEST PUSH1 0x5 DUP2 LT ISZERO PUSH2 0xA45 JUMPI DUP5 DUP2 DUP2 MLOAD DUP2 LT PUSH2 0xA03 JUMPI PUSH2 0xA02 PUSH2 0x30A1 JUMP JUMPDEST JUMPDEST PUSH1 0x20 MUL PUSH1 0x20 ADD ADD MLOAD PUSH1 0x9 PUSH0 DUP5 DUP2 MSTORE PUSH1 0x20 ADD SWAP1 DUP2 MSTORE PUSH1 0x20 ADD PUSH0 KECCAK256 PUSH0 DUP4 DUP2 MSTORE PUSH1 0x20 ADD SWAP1 DUP2 MSTORE PUSH1 0x20 ADD PUSH0 KECCAK256 SWAP1 DUP2 PUSH2 0xA37 SWAP2 SWAP1 PUSH2 0x3262 JUMP JUMPDEST POP DUP1 DUP1 PUSH1 0x1 ADD SWAP2 POP POP PUSH2 0x9E7 JUMP JUMPDEST POP PUSH0 JUMPDEST PUSH1 0x5 DUP2 LT ISZERO PUSH2 0xA9D JUMPI DUP6 DUP2 DUP2 MLOAD DUP2 LT PUSH2 0xA64 JUMPI PUSH2 0xA63 PUSH2 0x30A1 JUMP JUMPDEST JUMPDEST PUSH1 0x20 MUL PUSH1 0x20 ADD ADD MLOAD PUSH1 0xA PUSH0 DUP5 DUP2 MSTORE PUSH1 0x20 ADD SWAP1 DUP2 MSTORE PUSH1 0x20 ADD PUSH0 KECCAK256 PUSH0 DUP4 DUP2 MSTORE PUSH1 0x20 ADD SWAP1 DUP2 MSTORE PUSH1 0x20 ADD PUSH0 KECCAK256 DUP2 SWAP1 SSTORE POP DUP1 DUP1 PUSH1 0x1 ADD SWAP2 POP POP PUSH2 0xA48 JUMP JUMPDEST POP DUP3 PUSH1 0xB PUSH0 DUP4 DUP2 MSTORE PUSH1 0x20 ADD SWAP1 DUP2 MSTORE PUSH1 0x20 ADD PUSH0 KECCAK256 PUSH0 PUSH2 0x100 EXP DUP2 SLOAD DUP2 PUSH20 0xFFFFFFFFFFFFFFFFFFFFFFFFFFFFFFFFFFFFFFFF MUL NOT AND SWAP1 DUP4 PUSH20 0xFFFFFFFFFFFFFFFFFFFFFFFFFFFFFFFFFFFFFFFF AND MUL OR SWAP1 SSTORE POP PUSH2 0xAF7 DUP7 DUP3 PUSH2 0x18B1 JUMP JUMPDEST PUSH2 0xBA8 DUP2 PUSH1 0x9 PUSH0 DUP5 DUP2 MSTORE PUSH1 0x20 ADD SWAP1 DUP2 MSTORE PUSH1 0x20 ADD PUSH0 KECCAK256 PUSH0 PUSH1 0x2 DUP2 MSTORE PUSH1 0x20 ADD SWAP1 DUP2 MSTORE PUSH1 0x20 ADD PUSH0 KECCAK256 DUP1 SLOAD PUSH2 0xB27 SWAP1 PUSH2 0x2DD1 JUMP JUMPDEST DUP1 PUSH1 0x1F ADD PUSH1 0x20 DUP1 SWAP2 DIV MUL PUSH1 0x20 ADD PUSH1 0x40 MLOAD SWAP1 DUP2 ADD PUSH1 0x40 MSTORE DUP1 SWAP3 SWAP2 SWAP1 DUP2 DUP2 MSTORE PUSH1 0x20 ADD DUP3 DUP1 SLOAD PUSH2 0xB53 SWAP1 PUSH2 0x2DD1 JUMP JUMPDEST DUP1 ISZERO PUSH2 0xB9E JUMPI DUP1 PUSH1 0x1F LT PUSH2 0xB75 JUMPI PUSH2 0x100 DUP1 DUP4 SLOAD DIV MUL DUP4 MSTORE SWAP2 PUSH1 0x20 ADD SWAP2 PUSH2 0xB9E JUMP JUMPDEST DUP3 ADD SWAP2 SWAP1 PUSH0 MSTORE PUSH1 0x20 PUSH0 KECCAK256 SWAP1 JUMPDEST DUP2 SLOAD DUP2 MSTORE SWAP1 PUSH1 0x1 ADD SWAP1 PUSH1 0x20 ADD DUP1 DUP4 GT PUSH2 0xB81 JUMPI DUP3 SWAP1 SUB PUSH1 0x1F AND DUP3 ADD SWAP2 JUMPDEST POP POP POP POP POP PUSH2 0x18CE JUMP JUMPDEST DUP1 DUP7 PUSH20 0xFFFFFFFFFFFFFFFFFFFFFFFFFFFFFFFFFFFFFFFF AND PUSH32 0x30385C845B448A36257A6A1716E6AD2E1BC2CBE333CDE1E69FE849AD6511ADFE PUSH1 0x40 MLOAD PUSH1 0x40 MLOAD DUP1 SWAP2 SUB SWAP1 LOG3 PUSH1 0x1 PUSH1 0x8 PUSH0 DUP3 DUP3 SLOAD PUSH2 0xBFE SWAP2 SWAP1 PUSH2 0x335E JUMP JUMPDEST SWAP3 POP POP DUP2 SWAP1 SSTORE POP DUP1 SWAP2 POP POP SWAP5 SWAP4 POP POP POP POP JUMP JUMPDEST PUSH1 0xD SLOAD DUP2 JUMP JUMPDEST PUSH2 0xC31 DUP4 DUP4 DUP4 PUSH1 0x40 MLOAD DUP1 PUSH1 0x20 ADD PUSH1 0x40 MSTORE DUP1 PUSH0 DUP2 MSTORE POP PUSH2 0x1040 JUMP JUMPDEST POP POP POP JUMP JUMPDEST PUSH1 0xC SLOAD PUSH1 0xD SLOAD TIMESTAMP PUSH2 0xC47 SWAP2 SWAP1 PUSH2 0x3391 JUMP JUMPDEST GT ISZERO PUSH2 0xC5D JUMPI TIMESTAMP PUSH1 0xD DUP2 SWAP1 SSTORE POP PUSH2 0xC5C PUSH2 0x1208 JUMP JUMPDEST JUMPDEST POP POP JUMP JUMPDEST PUSH0 DUP1 PUSH1 0x2 PUSH0 DUP5 DUP2 MSTORE PUSH1 0x20 ADD SWAP1 DUP2 MSTORE PUSH1 0x20 ADD PUSH0 KECCAK256 PUSH0 SWAP1 SLOAD SWAP1 PUSH2 0x100 EXP SWAP1 DIV PUSH20 0xFFFFFFFFFFFFFFFFFFFFFFFFFFFFFFFFFFFFFFFF AND SWAP1 POP PUSH0 PUSH20 0xFFFFFFFFFFFFFFFFFFFFFFFFFFFFFFFFFFFFFFFF AND DUP2 PUSH20 0xFFFFFFFFFFFFFFFFFFFFFFFFFFFFFFFFFFFFFFFF AND SUB PUSH2 0xD04 JUMPI PUSH1 0x40 MLOAD PUSH32 0x8C379A000000000000000000000000000000000000000000000000000000000 DUP2 MSTORE PUSH1 0x4 ADD PUSH2 0xCFB SWAP1 PUSH2 0x3434 JUMP JUMPDEST PUSH1 0x40 MLOAD DUP1 SWAP2 SUB SWAP1 REVERT JUMPDEST DUP1 SWAP2 POP POP SWAP2 SWAP1 POP JUMP JUMPDEST PUSH0 PUSH1 0x60 PUSH1 0xC SLOAD PUSH1 0xD SLOAD TIMESTAMP PUSH2 0xD21 SWAP2 SWAP1 PUSH2 0x3391 JUMP JUMPDEST GT SWAP2 POP SWAP3 POP SWAP3 SWAP1 POP JUMP JUMPDEST PUSH0 DUP1 PUSH20 0xFFFFFFFFFFFFFFFFFFFFFFFFFFFFFFFFFFFFFFFF AND DUP3 PUSH20 0xFFFFFFFFFFFFFFFFFFFFFFFFFFFFFFFFFFFFFFFF AND SUB PUSH2 0xD9A JUMPI PUSH1 0x40 MLOAD PUSH32 0x8C379A000000000000000000000000000000000000000000000000000000000 DUP2 MSTORE PUSH1 0x4 ADD PUSH2 0xD91 SWAP1 PUSH2 0x34C2 JUMP JUMPDEST PUSH1 0x40 MLOAD DUP1 SWAP2 SUB SWAP1 REVERT JUMPDEST PUSH1 0x3 PUSH0 DUP4 PUSH20 0xFFFFFFFFFFFFFFFFFFFFFFFFFFFFFFFFFFFFFFFF AND PUSH20 0xFFFFFFFFFFFFFFFFFFFFFFFFFFFFFFFFFFFFFFFF AND DUP2 MSTORE PUSH1 0x20 ADD SWAP1 DUP2 MSTORE PUSH1 0x20 ADD PUSH0 KECCAK256 SLOAD SWAP1 POP SWAP2 SWAP1 POP JUMP JUMPDEST PUSH2 0xDE7 PUSH2 0x14BD JUMP JUMPDEST PUSH20 0xFFFFFFFFFFFFFFFFFFFFFFFFFFFFFFFFFFFFFFFF AND PUSH2 0xE05 PUSH2 0xF14 JUMP JUMPDEST PUSH20 0xFFFFFFFFFFFFFFFFFFFFFFFFFFFFFFFFFFFFFFFF AND EQ PUSH2 0xE5B JUMPI PUSH1 0x40 MLOAD PUSH32 0x8C379A000000000000000000000000000000000000000000000000000000000 DUP2 MSTORE PUSH1 0x4 ADD PUSH2 0xE52 SWAP1 PUSH2 0x2FF5 JUMP JUMPDEST PUSH1 0x40 MLOAD DUP1 SWAP2 SUB SWAP1 REVERT JUMPDEST PUSH2 0xE64 PUSH0 PUSH2 0x1939 JUMP JUMPDEST JUMP JUMPDEST PUSH0 DUP1 PUSH1 0xB PUSH0 DUP5 DUP2 MSTORE PUSH1 0x20 ADD SWAP1 DUP2 MSTORE PUSH1 0x20 ADD PUSH0 KECCAK256 PUSH0 SWAP1 SLOAD SWAP1 PUSH2 0x100 EXP SWAP1 DIV PUSH20 0xFFFFFFFFFFFFFFFFFFFFFFFFFFFFFFFFFFFFFFFF AND PUSH20 0xFFFFFFFFFFFFFFFFFFFFFFFFFFFFFFFFFFFFFFFF AND PUSH4 0xFEAF968C PUSH1 0x40 MLOAD DUP2 PUSH4 0xFFFFFFFF AND PUSH1 0xE0 SHL DUP2 MSTORE PUSH1 0x4 ADD PUSH1 0xA0 PUSH1 0x40 MLOAD DUP1 DUP4 SUB DUP2 DUP7 GAS STATICCALL ISZERO DUP1 ISZERO PUSH2 0xEE1 JUMPI RETURNDATASIZE PUSH0 DUP1 RETURNDATACOPY RETURNDATASIZE PUSH0 REVERT JUMPDEST POP POP POP POP PUSH1 0x40 MLOAD RETURNDATASIZE PUSH1 0x1F NOT PUSH1 0x1F DUP3 ADD AND DUP3 ADD DUP1 PUSH1 0x40 MSTORE POP DUP2 ADD SWAP1 PUSH2 0xF05 SWAP2 SWAP1 PUSH2 0x3547 JUMP JUMPDEST POP POP POP SWAP2 POP POP DUP1 SWAP2 POP POP SWAP2 SWAP1 POP JUMP JUMPDEST PUSH0 PUSH1 0x7 PUSH0 SWAP1 SLOAD SWAP1 PUSH2 0x100 EXP SWAP1 DIV PUSH20 0xFFFFFFFFFFFFFFFFFFFFFFFFFFFFFFFFFFFFFFFF AND SWAP1 POP SWAP1 JUMP JUMPDEST PUSH0 DUP1 PUSH0 SWAP1 POP JUMPDEST PUSH1 0x5 DUP2 LT ISZERO PUSH2 0xF88 JUMPI PUSH1 0xA PUSH0 DUP5 DUP2 MSTORE PUSH1 0x20 ADD SWAP1 DUP2 MSTORE PUSH1 0x20 ADD PUSH0 KECCAK256 PUSH0 DUP3 DUP2 MSTORE PUSH1 0x20 ADD SWAP1 DUP2 MSTORE PUSH1 0x20 ADD PUSH0 KECCAK256 SLOAD DUP5 GT PUSH2 0xF7B JUMPI DUP1 SWAP2 POP POP PUSH2 0xF8E JUMP JUMPDEST DUP1 DUP1 PUSH1 0x1 ADD SWAP2 POP POP PUSH2 0xF42 JUMP JUMPDEST POP PUSH1 0x4 SWAP1 POP JUMPDEST SWAP3 SWAP2 POP POP JUMP JUMPDEST PUSH1 0xC SLOAD DUP2 JUMP JUMPDEST PUSH1 0x60 PUSH1 0x1 DUP1 SLOAD PUSH2 0xFA9 SWAP1 PUSH2 0x2DD1 JUMP JUMPDEST DUP1 PUSH1 0x1F ADD PUSH1 0x20 DUP1 SWAP2 DIV MUL PUSH1 0x20 ADD PUSH1 0x40 MLOAD SWAP1 DUP2 ADD PUSH1 0x40 MSTORE DUP1 SWAP3 SWAP2 SWAP1 DUP2 DUP2 MSTORE PUSH1 0x20 ADD DUP3 DUP1 SLOAD PUSH2 0xFD5 SWAP1 PUSH2 0x2DD1 JUMP JUMPDEST DUP1 ISZERO PUSH2 0x1020 JUMPI DUP1 PUSH1 0x1F LT PUSH2 0xFF7 JUMPI PUSH2 0x100 DUP1 DUP4 SLOAD DIV MUL DUP4 MSTORE SWAP2 PUSH1 0x20 ADD SWAP2 PUSH2 0x1020 JUMP JUMPDEST DUP3 ADD SWAP2 SWAP1 PUSH0 MSTORE PUSH1 0x20 PUSH0 KECCAK256 SWAP1 JUMPDEST DUP2 SLOAD DUP2 MSTORE SWAP1 PUSH1 0x1 ADD SWAP1 PUSH1 0x20 ADD DUP1 DUP4 GT PUSH2 0x1003 JUMPI DUP3 SWAP1 SUB PUSH1 0x1F AND DUP3 ADD SWAP2 JUMPDEST POP POP POP POP POP SWAP1 POP SWAP1 JUMP JUMPDEST PUSH2 0x103C PUSH2 0x1035 PUSH2 0x14BD JUMP JUMPDEST DUP4 DUP4 PUSH2 0x19FC JUMP JUMPDEST POP POP JUMP JUMPDEST PUSH2 0x1051 PUSH2 0x104B PUSH2 0x14BD JUMP JUMPDEST DUP4 PUSH2 0x157A JUMP JUMPDEST PUSH2 0x1090 JUMPI PUSH1 0x40 MLOAD PUSH32 0x8C379A000000000000000000000000000000000000000000000000000000000 DUP2 MSTORE PUSH1 0x4 ADD PUSH2 0x1087 SWAP1 PUSH2 0x3083 JUMP JUMPDEST PUSH1 0x40 MLOAD DUP1 SWAP2 SUB SWAP1 REVERT JUMPDEST PUSH2 0x109C DUP5 DUP5 DUP5 DUP5 PUSH2 0x1B63 JUMP JUMPDEST POP POP POP POP JUMP JUMPDEST PUSH1 0x60 PUSH2 0x10AD DUP3 PUSH2 0x1BBF JUMP JUMPDEST SWAP1 POP SWAP2 SWAP1 POP JUMP JUMPDEST PUSH1 0x9 PUSH1 0x20 MSTORE DUP2 PUSH0 MSTORE PUSH1 0x40 PUSH0 KECCAK256 PUSH1 0x20 MSTORE DUP1 PUSH0 MSTORE PUSH1 0x40 PUSH0 KECCAK256 PUSH0 SWAP2 POP SWAP2 POP POP DUP1 SLOAD PUSH2 0x10DB SWAP1 PUSH2 0x2DD1 JUMP JUMPDEST DUP1 PUSH1 0x1F ADD PUSH1 0x20 DUP1 SWAP2 DIV MUL PUSH1 0x20 ADD PUSH1 0x40 MLOAD SWAP1 DUP2 ADD PUSH1 0x40 MSTORE DUP1 SWAP3 SWAP2 SWAP1 DUP2 DUP2 MSTORE PUSH1 0x20 ADD DUP3 DUP1 SLOAD PUSH2 0x1107 SWAP1 PUSH2 0x2DD1 JUMP JUMPDEST DUP1 ISZERO PUSH2 0x1152 JUMPI DUP1 PUSH1 0x1F LT PUSH2 0x1129 JUMPI PUSH2 0x100 DUP1 DUP4 SLOAD DIV MUL DUP4 MSTORE SWAP2 PUSH1 0x20 ADD SWAP2 PUSH2 0x1152 JUMP JUMPDEST DUP3 ADD SWAP2 SWAP1 PUSH0 MSTORE PUSH1 0x20 PUSH0 KECCAK256 SWAP1 JUMPDEST DUP2 SLOAD DUP2 MSTORE SWAP1 PUSH1 0x1 ADD SWAP1 PUSH1 0x20 ADD DUP1 DUP4 GT PUSH2 0x1135 JUMPI DUP3 SWAP1 SUB PUSH1 0x1F AND DUP3 ADD SWAP2 JUMPDEST POP POP POP POP POP DUP2 JUMP JUMPDEST PUSH1 0xA PUSH1 0x20 MSTORE DUP2 PUSH0 MSTORE PUSH1 0x40 PUSH0 KECCAK256 PUSH1 0x20 MSTORE DUP1 PUSH0 MSTORE PUSH1 0x40 PUSH0 KECCAK256 PUSH0 SWAP2 POP SWAP2 POP POP SLOAD DUP2 JUMP JUMPDEST PUSH0 PUSH1 0x5 PUSH0 DUP5 PUSH20 0xFFFFFFFFFFFFFFFFFFFFFFFFFFFFFFFFFFFFFFFF AND PUSH20 0xFFFFFFFFFFFFFFFFFFFFFFFFFFFFFFFFFFFFFFFF AND DUP2 MSTORE PUSH1 0x20 ADD SWAP1 DUP2 MSTORE PUSH1 0x20 ADD PUSH0 KECCAK256 PUSH0 DUP4 PUSH20 0xFFFFFFFFFFFFFFFFFFFFFFFFFFFFFFFFFFFFFFFF AND PUSH20 0xFFFFFFFFFFFFFFFFFFFFFFFFFFFFFFFFFFFFFFFF AND DUP2 MSTORE PUSH1 0x20 ADD SWAP1 DUP2 MSTORE PUSH1 0x20 ADD PUSH0 KECCAK256 PUSH0 SWAP1 SLOAD SWAP1 PUSH2 0x100 EXP SWAP1 DIV PUSH1 0xFF AND SWAP1 POP SWAP3 SWAP2 POP POP JUMP JUMPDEST TIMESTAMP PUSH1 0xD DUP2 SWAP1 SSTORE POP PUSH0 JUMPDEST PUSH1 0x8 SLOAD DUP2 LT ISZERO PUSH2 0x12F3 JUMPI PUSH0 PUSH2 0x1225 DUP3 PUSH2 0xE66 JUMP JUMPDEST SWAP1 POP PUSH0 PUSH2 0x1232 DUP3 DUP5 PUSH2 0xF3C JUMP JUMPDEST SWAP1 POP PUSH2 0x12E4 DUP4 PUSH1 0x9 PUSH0 DUP7 DUP2 MSTORE PUSH1 0x20 ADD SWAP1 DUP2 MSTORE PUSH1 0x20 ADD PUSH0 KECCAK256 PUSH0 DUP5 DUP2 MSTORE PUSH1 0x20 ADD SWAP1 DUP2 MSTORE PUSH1 0x20 ADD PUSH0 KECCAK256 DUP1 SLOAD PUSH2 0x1263 SWAP1 PUSH2 0x2DD1 JUMP JUMPDEST DUP1 PUSH1 0x1F ADD PUSH1 0x20 DUP1 SWAP2 DIV MUL PUSH1 0x20 ADD PUSH1 0x40 MLOAD SWAP1 DUP2 ADD PUSH1 0x40 MSTORE DUP1 SWAP3 SWAP2 SWAP1 DUP2 DUP2 MSTORE PUSH1 0x20 ADD DUP3 DUP1 SLOAD PUSH2 0x128F SWAP1 PUSH2 0x2DD1 JUMP JUMPDEST DUP1 ISZERO PUSH2 0x12DA JUMPI DUP1 PUSH1 0x1F LT PUSH2 0x12B1 JUMPI PUSH2 0x100 DUP1 DUP4 SLOAD DIV MUL DUP4 MSTORE SWAP2 PUSH1 0x20 ADD SWAP2 PUSH2 0x12DA JUMP JUMPDEST DUP3 ADD SWAP2 SWAP1 PUSH0 MSTORE PUSH1 0x20 PUSH0 KECCAK256 SWAP1 JUMPDEST DUP2 SLOAD DUP2 MSTORE SWAP1 PUSH1 0x1 ADD SWAP1 PUSH1 0x20 ADD DUP1 DUP4 GT PUSH2 0x12BD JUMPI DUP3 SWAP1 SUB PUSH1 0x1F AND DUP3 ADD SWAP2 JUMPDEST POP POP POP POP POP PUSH2 0x18CE JUMP JUMPDEST POP POP DUP1 DUP1 PUSH1 0x1 ADD SWAP2 POP POP PUSH2 0x1211 JUMP JUMPDEST POP JUMP JUMPDEST PUSH2 0x12FE PUSH2 0x14BD JUMP JUMPDEST PUSH20 0xFFFFFFFFFFFFFFFFFFFFFFFFFFFFFFFFFFFFFFFF AND PUSH2 0x131C PUSH2 0xF14 JUMP JUMPDEST PUSH20 0xFFFFFFFFFFFFFFFFFFFFFFFFFFFFFFFFFFFFFFFF AND EQ PUSH2 0x1372 JUMPI PUSH1 0x40 MLOAD PUSH32 0x8C379A000000000000000000000000000000000000000000000000000000000 DUP2 MSTORE PUSH1 0x4 ADD PUSH2 0x1369 SWAP1 PUSH2 0x2FF5 JUMP JUMPDEST PUSH1 0x40 MLOAD DUP1 SWAP2 SUB SWAP1 REVERT JUMPDEST PUSH0 PUSH20 0xFFFFFFFFFFFFFFFFFFFFFFFFFFFFFFFFFFFFFFFF AND DUP2 PUSH20 0xFFFFFFFFFFFFFFFFFFFFFFFFFFFFFFFFFFFFFFFF AND SUB PUSH2 0x13E0 JUMPI PUSH1 0x40 MLOAD PUSH32 0x8C379A000000000000000000000000000000000000000000000000000000000 DUP2 MSTORE PUSH1 0x4 ADD PUSH2 0x13D7 SWAP1 PUSH2 0x362E JUMP JUMPDEST PUSH1 0x40 MLOAD DUP1 SWAP2 SUB SWAP1 REVERT JUMPDEST PUSH2 0x13E9 DUP2 PUSH2 0x1939 JUMP JUMPDEST POP JUMP JUMPDEST PUSH0 PUSH32 0x1FFC9A700000000000000000000000000000000000000000000000000000000 PUSH28 0xFFFFFFFFFFFFFFFFFFFFFFFFFFFFFFFFFFFFFFFFFFFFFFFFFFFFFFFF NOT AND DUP3 PUSH28 0xFFFFFFFFFFFFFFFFFFFFFFFFFFFFFFFFFFFFFFFFFFFFFFFFFFFFFFFF NOT AND EQ SWAP1 POP SWAP2 SWAP1 POP JUMP JUMPDEST PUSH0 DUP1 PUSH20 0xFFFFFFFFFFFFFFFFFFFFFFFFFFFFFFFFFFFFFFFF AND PUSH1 0x2 PUSH0 DUP5 DUP2 MSTORE PUSH1 0x20 ADD SWAP1 DUP2 MSTORE PUSH1 0x20 ADD PUSH0 KECCAK256 PUSH0 SWAP1 SLOAD SWAP1 PUSH2 0x100 EXP SWAP1 DIV PUSH20 0xFFFFFFFFFFFFFFFFFFFFFFFFFFFFFFFFFFFFFFFF AND PUSH20 0xFFFFFFFFFFFFFFFFFFFFFFFFFFFFFFFFFFFFFFFF AND EQ ISZERO SWAP1 POP SWAP2 SWAP1 POP JUMP JUMPDEST PUSH0 CALLER SWAP1 POP SWAP1 JUMP JUMPDEST DUP2 PUSH1 0x4 PUSH0 DUP4 DUP2 MSTORE PUSH1 0x20 ADD SWAP1 DUP2 MSTORE PUSH1 0x20 ADD PUSH0 KECCAK256 PUSH0 PUSH2 0x100 EXP DUP2 SLOAD DUP2 PUSH20 0xFFFFFFFFFFFFFFFFFFFFFFFFFFFFFFFFFFFFFFFF MUL NOT AND SWAP1 DUP4 PUSH20 0xFFFFFFFFFFFFFFFFFFFFFFFFFFFFFFFFFFFFFFFF AND MUL OR SWAP1 SSTORE POP DUP1 DUP3 PUSH20 0xFFFFFFFFFFFFFFFFFFFFFFFFFFFFFFFFFFFFFFFF AND PUSH2 0x1534 DUP4 PUSH2 0xC61 JUMP JUMPDEST PUSH20 0xFFFFFFFFFFFFFFFFFFFFFFFFFFFFFFFFFFFFFFFF AND PUSH32 0x8C5BE1E5EBEC7D5BD14F71427D1E84F3DD0314C0F7B2291E5B200AC8C7C3B925 PUSH1 0x40 MLOAD PUSH1 0x40 MLOAD DUP1 SWAP2 SUB SWAP1 LOG4 POP POP JUMP JUMPDEST PUSH0 PUSH2 0x1584 DUP3 PUSH2 0x1455 JUMP JUMPDEST PUSH2 0x15C3 JUMPI PUSH1 0x40 MLOAD PUSH32 0x8C379A000000000000000000000000000000000000000000000000000000000 DUP2 MSTORE PUSH1 0x4 ADD PUSH2 0x15BA SWAP1 PUSH2 0x36BC JUMP JUMPDEST PUSH1 0x40 MLOAD DUP1 SWAP2 SUB SWAP1 REVERT JUMPDEST PUSH0 PUSH2 0x15CD DUP4 PUSH2 0xC61 JUMP JUMPDEST SWAP1 POP DUP1 PUSH20 0xFFFFFFFFFFFFFFFFFFFFFFFFFFFFFFFFFFFFFFFF AND DUP5 PUSH20 0xFFFFFFFFFFFFFFFFFFFFFFFFFFFFFFFFFFFFFFFF AND EQ DUP1 PUSH2 0x160F JUMPI POP PUSH2 0x160E DUP2 DUP6 PUSH2 0x117A JUMP JUMPDEST JUMPDEST DUP1 PUSH2 0x164D JUMPI POP DUP4 PUSH20 0xFFFFFFFFFFFFFFFFFFFFFFFFFFFFFFFFFFFFFFFF AND PUSH2 0x1635 DUP5 PUSH2 0x731 JUMP JUMPDEST PUSH20 0xFFFFFFFFFFFFFFFFFFFFFFFFFFFFFFFFFFFFFFFF AND EQ JUMPDEST SWAP2 POP POP SWAP3 SWAP2 POP POP JUMP JUMPDEST DUP3 PUSH20 0xFFFFFFFFFFFFFFFFFFFFFFFFFFFFFFFFFFFFFFFF AND PUSH2 0x1676 DUP3 PUSH2 0xC61 JUMP JUMPDEST PUSH20 0xFFFFFFFFFFFFFFFFFFFFFFFFFFFFFFFFFFFFFFFF AND EQ PUSH2 0x16CC JUMPI PUSH1 0x40 MLOAD PUSH32 0x8C379A000000000000000000000000000000000000000000000000000000000 DUP2 MSTORE PUSH1 0x4 ADD PUSH2 0x16C3 SWAP1 PUSH2 0x374A JUMP JUMPDEST PUSH1 0x40 MLOAD DUP1 SWAP2 SUB SWAP1 REVERT JUMPDEST PUSH0 PUSH20 0xFFFFFFFFFFFFFFFFFFFFFFFFFFFFFFFFFFFFFFFF AND DUP3 PUSH20 0xFFFFFFFFFFFFFFFFFFFFFFFFFFFFFFFFFFFFFFFF AND SUB PUSH2 0x173A JUMPI PUSH1 0x40 MLOAD PUSH32 0x8C379A000000000000000000000000000000000000000000000000000000000 DUP2 MSTORE PUSH1 0x4 ADD PUSH2 0x1731 SWAP1 PUSH2 0x37D8 JUMP JUMPDEST PUSH1 0x40 MLOAD DUP1 SWAP2 SUB SWAP1 REVERT JUMPDEST PUSH2 0x1745 DUP4 DUP4 DUP4 PUSH2 0x1D08 JUMP JUMPDEST PUSH2 0x174F PUSH0 DUP3 PUSH2 0x14C4 JUMP JUMPDEST PUSH1 0x1 PUSH1 0x3 PUSH0 DUP6 PUSH20 0xFFFFFFFFFFFFFFFFFFFFFFFFFFFFFFFFFFFFFFFF AND PUSH20 0xFFFFFFFFFFFFFFFFFFFFFFFFFFFFFFFFFFFFFFFF AND DUP2 MSTORE PUSH1 0x20 ADD SWAP1 DUP2 MSTORE PUSH1 0x20 ADD PUSH0 KECCAK256 PUSH0 DUP3 DUP3 SLOAD PUSH2 0x179C SWAP2 SWAP1 PUSH2 0x3391 JUMP JUMPDEST SWAP3 POP POP DUP2 SWAP1 SSTORE POP PUSH1 0x1 PUSH1 0x3 PUSH0 DUP5 PUSH20 0xFFFFFFFFFFFFFFFFFFFFFFFFFFFFFFFFFFFFFFFF AND PUSH20 0xFFFFFFFFFFFFFFFFFFFFFFFFFFFFFFFFFFFFFFFF AND DUP2 MSTORE PUSH1 0x20 ADD SWAP1 DUP2 MSTORE PUSH1 0x20 ADD PUSH0 KECCAK256 PUSH0 DUP3 DUP3 SLOAD PUSH2 0x17F0 SWAP2 SWAP1 PUSH2 0x335E JUMP JUMPDEST SWAP3 POP POP DUP2 SWAP1 SSTORE POP DUP2 PUSH1 0x2 PUSH0 DUP4 DUP2 MSTORE PUSH1 0x20 ADD SWAP1 DUP2 MSTORE PUSH1 0x20 ADD PUSH0 KECCAK256 PUSH0 PUSH2 0x100 EXP DUP2 SLOAD DUP2 PUSH20 0xFFFFFFFFFFFFFFFFFFFFFFFFFFFFFFFFFFFFFFFF MUL NOT AND SWAP1 DUP4 PUSH20 0xFFFFFFFFFFFFFFFFFFFFFFFFFFFFFFFFFFFFFFFF AND MUL OR SWAP1 SSTORE POP DUP1 DUP3 PUSH20 0xFFFFFFFFFFFFFFFFFFFFFFFFFFFFFFFFFFFFFFFF AND DUP5 PUSH20 0xFFFFFFFFFFFFFFFFFFFFFFFFFFFFFFFFFFFFFFFF AND PUSH32 0xDDF252AD1BE2C89B69C2B068FC378DAA952BA7F163C4A11628F55A4DF523B3EF PUSH1 0x40 MLOAD PUSH1 0x40 MLOAD DUP1 SWAP2 SUB SWAP1 LOG4 PUSH2 0x18AC DUP4 DUP4 DUP4 PUSH2 0x1D0D JUMP JUMPDEST POP POP POP JUMP JUMPDEST PUSH2 0x18CA DUP3 DUP3 PUSH1 0x40 MLOAD DUP1 PUSH1 0x20 ADD PUSH1 0x40 MSTORE DUP1 PUSH0 DUP2 MSTORE POP PUSH2 0x1D12 JUMP JUMPDEST POP POP JUMP JUMPDEST PUSH2 0x18D7 DUP3 PUSH2 0x1455 JUMP JUMPDEST PUSH2 0x1916 JUMPI PUSH1 0x40 MLOAD PUSH32 0x8C379A000000000000000000000000000000000000000000000000000000000 DUP2 MSTORE PUSH1 0x4 ADD PUSH2 0x190D SWAP1 PUSH2 0x3866 JUMP JUMPDEST PUSH1 0x40 MLOAD DUP1 SWAP2 SUB SWAP1 REVERT JUMPDEST DUP1 PUSH1 0x6 PUSH0 DUP5 DUP2 MSTORE PUSH1 0x20 ADD SWAP1 DUP2 MSTORE PUSH1 0x20 ADD PUSH0 KECCAK256 SWAP1 DUP2 PUSH2 0x1934 SWAP2 SWAP1 PUSH2 0x3262 JUMP JUMPDEST POP POP POP JUMP JUMPDEST PUSH0 PUSH1 0x7 PUSH0 SWAP1 SLOAD SWAP1 PUSH2 0x100 EXP SWAP1 DIV PUSH20 0xFFFFFFFFFFFFFFFFFFFFFFFFFFFFFFFFFFFFFFFF AND SWAP1 POP DUP2 PUSH1 0x7 PUSH0 PUSH2 0x100 EXP DUP2 SLOAD DUP2 PUSH20 0xFFFFFFFFFFFFFFFFFFFFFFFFFFFFFFFFFFFFFFFF MUL NOT AND SWAP1 DUP4 PUSH20 0xFFFFFFFFFFFFFFFFFFFFFFFFFFFFFFFFFFFFFFFF AND MUL OR SWAP1 SSTORE POP DUP2 PUSH20 0xFFFFFFFFFFFFFFFFFFFFFFFFFFFFFFFFFFFFFFFF AND DUP2 PUSH20 0xFFFFFFFFFFFFFFFFFFFFFFFFFFFFFFFFFFFFFFFF AND PUSH32 0x8BE0079C531659141344CD1FD0A4F28419497F9722A3DAAFE3B4186F6B6457E0 PUSH1 0x40 MLOAD PUSH1 0x40 MLOAD DUP1 SWAP2 SUB SWAP1 LOG3 POP POP JUMP JUMPDEST DUP2 PUSH20 0xFFFFFFFFFFFFFFFFFFFFFFFFFFFFFFFFFFFFFFFF AND DUP4 PUSH20 0xFFFFFFFFFFFFFFFFFFFFFFFFFFFFFFFFFFFFFFFF AND SUB PUSH2 0x1A6A JUMPI PUSH1 0x40 MLOAD PUSH32 0x8C379A000000000000000000000000000000000000000000000000000000000 DUP2 MSTORE PUSH1 0x4 ADD PUSH2 0x1A61 SWAP1 PUSH2 0x38CE JUMP JUMPDEST PUSH1 0x40 MLOAD DUP1 SWAP2 SUB SWAP1 REVERT JUMPDEST DUP1 PUSH1 0x5 PUSH0 DUP6 PUSH20 0xFFFFFFFFFFFFFFFFFFFFFFFFFFFFFFFFFFFFFFFF AND PUSH20 0xFFFFFFFFFFFFFFFFFFFFFFFFFFFFFFFFFFFFFFFF AND DUP2 MSTORE PUSH1 0x20 ADD SWAP1 DUP2 MSTORE PUSH1 0x20 ADD PUSH0 KECCAK256 PUSH0 DUP5 PUSH20 0xFFFFFFFFFFFFFFFFFFFFFFFFFFFFFFFFFFFFFFFF AND PUSH20 0xFFFFFFFFFFFFFFFFFFFFFFFFFFFFFFFFFFFFFFFF AND DUP2 MSTORE PUSH1 0x20 ADD SWAP1 DUP2 MSTORE PUSH1 0x20 ADD PUSH0 KECCAK256 PUSH0 PUSH2 0x100 EXP DUP2 SLOAD DUP2 PUSH1 0xFF MUL NOT AND SWAP1 DUP4 ISZERO ISZERO MUL OR SWAP1 SSTORE POP DUP2 PUSH20 0xFFFFFFFFFFFFFFFFFFFFFFFFFFFFFFFFFFFFFFFF AND DUP4 PUSH20 0xFFFFFFFFFFFFFFFFFFFFFFFFFFFFFFFFFFFFFFFF AND PUSH32 0x17307EAB39AB6107E8899845AD3D59BD9653F200F220920489CA2B5937696C31 DUP4 PUSH1 0x40 MLOAD PUSH2 0x1B56 SWAP2 SWAP1 PUSH2 0x239D JUMP JUMPDEST PUSH1 0x40 MLOAD DUP1 SWAP2 SUB SWAP1 LOG3 POP POP POP JUMP JUMPDEST PUSH2 0x1B6E DUP5 DUP5 DUP5 PUSH2 0x1656 JUMP JUMPDEST PUSH2 0x1B7A DUP5 DUP5 DUP5 DUP5 PUSH2 0x1D6C JUMP JUMPDEST PUSH2 0x1BB9 JUMPI PUSH1 0x40 MLOAD PUSH32 0x8C379A000000000000000000000000000000000000000000000000000000000 DUP2 MSTORE PUSH1 0x4 ADD PUSH2 0x1BB0 SWAP1 PUSH2 0x395C JUMP JUMPDEST PUSH1 0x40 MLOAD DUP1 SWAP2 SUB SWAP1 REVERT JUMPDEST POP POP POP POP JUMP JUMPDEST PUSH1 0x60 PUSH2 0x1BCA DUP3 PUSH2 0x1455 JUMP JUMPDEST PUSH2 0x1C09 JUMPI PUSH1 0x40 MLOAD PUSH32 0x8C379A000000000000000000000000000000000000000000000000000000000 DUP2 MSTORE PUSH1 0x4 ADD PUSH2 0x1C00 SWAP1 PUSH2 0x39EA JUMP JUMPDEST PUSH1 0x40 MLOAD DUP1 SWAP2 SUB SWAP1 REVERT JUMPDEST PUSH0 PUSH1 0x6 PUSH0 DUP5 DUP2 MSTORE PUSH1 0x20 ADD SWAP1 DUP2 MSTORE PUSH1 0x20 ADD PUSH0 KECCAK256 DUP1 SLOAD PUSH2 0x1C26 SWAP1 PUSH2 0x2DD1 JUMP JUMPDEST DUP1 PUSH1 0x1F ADD PUSH1 0x20 DUP1 SWAP2 DIV MUL PUSH1 0x20 ADD PUSH1 0x40 MLOAD SWAP1 DUP2 ADD PUSH1 0x40 MSTORE DUP1 SWAP3 SWAP2 SWAP1 DUP2 DUP2 MSTORE PUSH1 0x20 ADD DUP3 DUP1 SLOAD PUSH2 0x1C52 SWAP1 PUSH2 0x2DD1 JUMP JUMPDEST DUP1 ISZERO PUSH2 0x1C9D JUMPI DUP1 PUSH1 0x1F LT PUSH2 0x1C74 JUMPI PUSH2 0x100 DUP1 DUP4 SLOAD DIV MUL DUP4 MSTORE SWAP2 PUSH1 0x20 ADD SWAP2 PUSH2 0x1C9D JUMP JUMPDEST DUP3 ADD SWAP2 SWAP1 PUSH0 MSTORE PUSH1 0x20 PUSH0 KECCAK256 SWAP1 JUMPDEST DUP2 SLOAD DUP2 MSTORE SWAP1 PUSH1 0x1 ADD SWAP1 PUSH1 0x20 ADD DUP1 DUP4 GT PUSH2 0x1C80 JUMPI DUP3 SWAP1 SUB PUSH1 0x1F AND DUP3 ADD SWAP2 JUMPDEST POP POP POP POP POP SWAP1 POP PUSH0 PUSH2 0x1CAD PUSH2 0x1EEE JUMP JUMPDEST SWAP1 POP PUSH0 DUP2 MLOAD SUB PUSH2 0x1CC1 JUMPI DUP2 SWAP3 POP POP POP PUSH2 0x1D03 JUMP JUMPDEST PUSH0 DUP3 MLOAD GT ISZERO PUSH2 0x1CF5 JUMPI DUP1 DUP3 PUSH1 0x40 MLOAD PUSH1 0x20 ADD PUSH2 0x1CDD SWAP3 SWAP2 SWAP1 PUSH2 0x3A42 JUMP JUMPDEST PUSH1 0x40 MLOAD PUSH1 0x20 DUP2 DUP4 SUB SUB DUP2 MSTORE SWAP1 PUSH1 0x40 MSTORE SWAP3 POP POP POP PUSH2 0x1D03 JUMP JUMPDEST PUSH2 0x1CFE DUP5 PUSH2 0x1F04 JUMP JUMPDEST SWAP3 POP POP POP JUMPDEST SWAP2 SWAP1 POP JUMP JUMPDEST POP POP POP JUMP JUMPDEST POP POP POP JUMP JUMPDEST PUSH2 0x1D1C DUP4 DUP4 PUSH2 0x1FA8 JUMP JUMPDEST PUSH2 0x1D28 PUSH0 DUP5 DUP5 DUP5 PUSH2 0x1D6C JUMP JUMPDEST PUSH2 0x1D67 JUMPI PUSH1 0x40 MLOAD PUSH32 0x8C379A000000000000000000000000000000000000000000000000000000000 DUP2 MSTORE PUSH1 0x4 ADD PUSH2 0x1D5E SWAP1 PUSH2 0x395C JUMP JUMPDEST PUSH1 0x40 MLOAD DUP1 SWAP2 SUB SWAP1 REVERT JUMPDEST POP POP POP JUMP JUMPDEST PUSH0 PUSH2 0x1D8C DUP5 PUSH20 0xFFFFFFFFFFFFFFFFFFFFFFFFFFFFFFFFFFFFFFFF AND PUSH2 0x2177 JUMP JUMPDEST ISZERO PUSH2 0x1EE1 JUMPI DUP4 PUSH20 0xFFFFFFFFFFFFFFFFFFFFFFFFFFFFFFFFFFFFFFFF AND PUSH4 0x150B7A02 PUSH2 0x1DB5 PUSH2 0x14BD JUMP JUMPDEST DUP8 DUP7 DUP7 PUSH1 0x40 MLOAD DUP6 PUSH4 0xFFFFFFFF AND PUSH1 0xE0 SHL DUP2 MSTORE PUSH1 0x4 ADD PUSH2 0x1DD7 SWAP5 SWAP4 SWAP3 SWAP2 SWAP1 PUSH2 0x3A65 JUMP JUMPDEST PUSH1 0x20 PUSH1 0x40 MLOAD DUP1 DUP4 SUB DUP2 PUSH0 DUP8 GAS CALL SWAP3 POP POP POP DUP1 ISZERO PUSH2 0x1E12 JUMPI POP PUSH1 0x40 MLOAD RETURNDATASIZE PUSH1 0x1F NOT PUSH1 0x1F DUP3 ADD AND DUP3 ADD DUP1 PUSH1 0x40 MSTORE POP DUP2 ADD SWAP1 PUSH2 0x1E0F SWAP2 SWAP1 PUSH2 0x3AC3 JUMP JUMPDEST PUSH1 0x1 JUMPDEST PUSH2 0x1E91 JUMPI RETURNDATASIZE DUP1 PUSH0 DUP2 EQ PUSH2 0x1E40 JUMPI PUSH1 0x40 MLOAD SWAP2 POP PUSH1 0x1F NOT PUSH1 0x3F RETURNDATASIZE ADD AND DUP3 ADD PUSH1 0x40 MSTORE RETURNDATASIZE DUP3 MSTORE RETURNDATASIZE PUSH0 PUSH1 0x20 DUP5 ADD RETURNDATACOPY PUSH2 0x1E45 JUMP JUMPDEST PUSH1 0x60 SWAP2 POP JUMPDEST POP PUSH0 DUP2 MLOAD SUB PUSH2 0x1E89 JUMPI PUSH1 0x40 MLOAD PUSH32 0x8C379A000000000000000000000000000000000000000000000000000000000 DUP2 MSTORE PUSH1 0x4 ADD PUSH2 0x1E80 SWAP1 PUSH2 0x395C JUMP JUMPDEST PUSH1 0x40 MLOAD DUP1 SWAP2 SUB SWAP1 REVERT JUMPDEST DUP1 MLOAD DUP2 PUSH1 0x20 ADD REVERT JUMPDEST PUSH4 0x150B7A02 PUSH1 0xE0 SHL PUSH28 0xFFFFFFFFFFFFFFFFFFFFFFFFFFFFFFFFFFFFFFFFFFFFFFFFFFFFFFFF NOT AND DUP2 PUSH28 0xFFFFFFFFFFFFFFFFFFFFFFFFFFFFFFFFFFFFFFFFFFFFFFFFFFFFFFFF NOT AND EQ SWAP2 POP POP PUSH2 0x1EE6 JUMP JUMPDEST PUSH1 0x1 SWAP1 POP JUMPDEST SWAP5 SWAP4 POP POP POP POP JUMP JUMPDEST PUSH1 0x60 PUSH1 0x40 MLOAD DUP1 PUSH1 0x20 ADD PUSH1 0x40 MSTORE DUP1 PUSH0 DUP2 MSTORE POP SWAP1 POP SWAP1 JUMP JUMPDEST PUSH1 0x60 PUSH2 0x1F0F DUP3 PUSH2 0x1455 JUMP JUMPDEST PUSH2 0x1F4E JUMPI PUSH1 0x40 MLOAD PUSH32 0x8C379A000000000000000000000000000000000000000000000000000000000 DUP2 MSTORE PUSH1 0x4 ADD PUSH2 0x1F45 SWAP1 PUSH2 0x3B5E JUMP JUMPDEST PUSH1 0x40 MLOAD DUP1 SWAP2 SUB SWAP1 REVERT JUMPDEST PUSH0 PUSH2 0x1F57 PUSH2 0x1EEE JUMP JUMPDEST SWAP1 POP PUSH0 DUP2 MLOAD GT PUSH2 0x1F75 JUMPI PUSH1 0x40 MLOAD DUP1 PUSH1 0x20 ADD PUSH1 0x40 MSTORE DUP1 PUSH0 DUP2 MSTORE POP PUSH2 0x1FA0 JUMP JUMPDEST DUP1 PUSH2 0x1F7F DUP5 PUSH2 0x2199 JUMP JUMPDEST PUSH1 0x40 MLOAD PUSH1 0x20 ADD PUSH2 0x1F90 SWAP3 SWAP2 SWAP1 PUSH2 0x3A42 JUMP JUMPDEST PUSH1 0x40 MLOAD PUSH1 0x20 DUP2 DUP4 SUB SUB DUP2 MSTORE SWAP1 PUSH1 0x40 MSTORE JUMPDEST SWAP2 POP POP SWAP2 SWAP1 POP JUMP JUMPDEST PUSH0 PUSH20 0xFFFFFFFFFFFFFFFFFFFFFFFFFFFFFFFFFFFFFFFF AND DUP3 PUSH20 0xFFFFFFFFFFFFFFFFFFFFFFFFFFFFFFFFFFFFFFFF AND SUB PUSH2 0x2016 JUMPI PUSH1 0x40 MLOAD PUSH32 0x8C379A000000000000000000000000000000000000000000000000000000000 DUP2 MSTORE PUSH1 0x4 ADD PUSH2 0x200D SWAP1 PUSH2 0x3BC6 JUMP JUMPDEST PUSH1 0x40 MLOAD DUP1 SWAP2 SUB SWAP1 REVERT JUMPDEST PUSH2 0x201F DUP2 PUSH2 0x1455 JUMP JUMPDEST ISZERO PUSH2 0x205F JUMPI PUSH1 0x40 MLOAD PUSH32 0x8C379A000000000000000000000000000000000000000000000000000000000 DUP2 MSTORE PUSH1 0x4 ADD PUSH2 0x2056 SWAP1 PUSH2 0x3C2E JUMP JUMPDEST PUSH1 0x40 MLOAD DUP1 SWAP2 SUB SWAP1 REVERT JUMPDEST PUSH2 0x206A PUSH0 DUP4 DUP4 PUSH2 0x1D08 JUMP JUMPDEST PUSH1 0x1 PUSH1 0x3 PUSH0 DUP5 PUSH20 0xFFFFFFFFFFFFFFFFFFFFFFFFFFFFFFFFFFFFFFFF AND PUSH20 0xFFFFFFFFFFFFFFFFFFFFFFFFFFFFFFFFFFFFFFFF AND DUP2 MSTORE PUSH1 0x20 ADD SWAP1 DUP2 MSTORE PUSH1 0x20 ADD PUSH0 KECCAK256 PUSH0 DUP3 DUP3 SLOAD PUSH2 0x20B7 SWAP2 SWAP1 PUSH2 0x335E JUMP JUMPDEST SWAP3 POP POP DUP2 SWAP1 SSTORE POP DUP2 PUSH1 0x2 PUSH0 DUP4 DUP2 MSTORE PUSH1 0x20 ADD SWAP1 DUP2 MSTORE PUSH1 0x20 ADD PUSH0 KECCAK256 PUSH0 PUSH2 0x100 EXP DUP2 SLOAD DUP2 PUSH20 0xFFFFFFFFFFFFFFFFFFFFFFFFFFFFFFFFFFFFFFFF MUL NOT AND SWAP1 DUP4 PUSH20 0xFFFFFFFFFFFFFFFFFFFFFFFFFFFFFFFFFFFFFFFF AND MUL OR SWAP1 SSTORE POP DUP1 DUP3 PUSH20 0xFFFFFFFFFFFFFFFFFFFFFFFFFFFFFFFFFFFFFFFF AND PUSH0 PUSH20 0xFFFFFFFFFFFFFFFFFFFFFFFFFFFFFFFFFFFFFFFF AND PUSH32 0xDDF252AD1BE2C89B69C2B068FC378DAA952BA7F163C4A11628F55A4DF523B3EF PUSH1 0x40 MLOAD PUSH1 0x40 MLOAD DUP1 SWAP2 SUB SWAP1 LOG4 PUSH2 0x2173 PUSH0 DUP4 DUP4 PUSH2 0x1D0D JUMP JUMPDEST POP POP JUMP JUMPDEST PUSH0 DUP1 DUP3 PUSH20 0xFFFFFFFFFFFFFFFFFFFFFFFFFFFFFFFFFFFFFFFF AND EXTCODESIZE GT SWAP1 POP SWAP2 SWAP1 POP JUMP JUMPDEST PUSH1 0x60 PUSH0 DUP3 SUB PUSH2 0x21DF JUMPI PUSH1 0x40 MLOAD DUP1 PUSH1 0x40 ADD PUSH1 0x40 MSTORE DUP1 PUSH1 0x1 DUP2 MSTORE PUSH1 0x20 ADD PUSH32 0x3000000000000000000000000000000000000000000000000000000000000000 DUP2 MSTORE POP SWAP1 POP PUSH2 0x22ED JUMP JUMPDEST PUSH0 DUP3 SWAP1 POP PUSH0 JUMPDEST PUSH0 DUP3 EQ PUSH2 0x220E JUMPI DUP1 DUP1 PUSH2 0x21F7 SWAP1 PUSH2 0x3C4C JUMP JUMPDEST SWAP2 POP POP PUSH1 0xA DUP3 PUSH2 0x2207 SWAP2 SWAP1 PUSH2 0x3CC0 JUMP JUMPDEST SWAP2 POP PUSH2 0x21E5 JUMP JUMPDEST PUSH0 DUP2 PUSH8 0xFFFFFFFFFFFFFFFF DUP2 GT ISZERO PUSH2 0x2229 JUMPI PUSH2 0x2228 PUSH2 0x262C JUMP JUMPDEST JUMPDEST PUSH1 0x40 MLOAD SWAP1 DUP1 DUP3 MSTORE DUP1 PUSH1 0x1F ADD PUSH1 0x1F NOT AND PUSH1 0x20 ADD DUP3 ADD PUSH1 0x40 MSTORE DUP1 ISZERO PUSH2 0x225B JUMPI DUP2 PUSH1 0x20 ADD PUSH1 0x1 DUP3 MUL DUP1 CALLDATASIZE DUP4 CALLDATACOPY DUP1 DUP3 ADD SWAP2 POP POP SWAP1 POP JUMPDEST POP SWAP1 POP JUMPDEST PUSH0 DUP6 EQ PUSH2 0x22E6 JUMPI PUSH1 0x1 DUP3 PUSH2 0x2273 SWAP2 SWAP1 PUSH2 0x3391 JUMP JUMPDEST SWAP2 POP PUSH1 0xA DUP6 PUSH2 0x2282 SWAP2 SWAP1 PUSH2 0x3CF0 JUMP JUMPDEST PUSH1 0x30 PUSH2 0x228E SWAP2 SWAP1 PUSH2 0x335E JUMP JUMPDEST PUSH1 0xF8 SHL DUP2 DUP4 DUP2 MLOAD DUP2 LT PUSH2 0x22A4 JUMPI PUSH2 0x22A3 PUSH2 0x30A1 JUMP JUMPDEST JUMPDEST PUSH1 0x20 ADD ADD SWAP1 PUSH31 0xFFFFFFFFFFFFFFFFFFFFFFFFFFFFFFFFFFFFFFFFFFFFFFFFFFFFFFFFFFFFFF NOT AND SWAP1 DUP2 PUSH0 BYTE SWAP1 MSTORE8 POP PUSH1 0xA DUP6 PUSH2 0x22DF SWAP2 SWAP1 PUSH2 0x3CC0 JUMP JUMPDEST SWAP5 POP PUSH2 0x225F JUMP JUMPDEST DUP1 SWAP4 POP POP POP POP JUMPDEST SWAP2 SWAP1 POP JUMP JUMPDEST PUSH0 PUSH1 0x40 MLOAD SWAP1 POP SWAP1 JUMP JUMPDEST PUSH0 DUP1 REVERT JUMPDEST PUSH0 DUP1 REVERT JUMPDEST PUSH0 PUSH32 0xFFFFFFFF00000000000000000000000000000000000000000000000000000000 DUP3 AND SWAP1 POP SWAP2 SWAP1 POP JUMP JUMPDEST PUSH2 0x2337 DUP2 PUSH2 0x2303 JUMP JUMPDEST DUP2 EQ PUSH2 0x2341 JUMPI PUSH0 DUP1 REVERT JUMPDEST POP JUMP JUMPDEST PUSH0 DUP2 CALLDATALOAD SWAP1 POP PUSH2 0x2352 DUP2 PUSH2 0x232E JUMP JUMPDEST SWAP3 SWAP2 POP POP JUMP JUMPDEST PUSH0 PUSH1 0x20 DUP3 DUP5 SUB SLT ISZERO PUSH2 0x236D JUMPI PUSH2 0x236C PUSH2 0x22FB JUMP JUMPDEST JUMPDEST PUSH0 PUSH2 0x237A DUP5 DUP3 DUP6 ADD PUSH2 0x2344 JUMP JUMPDEST SWAP2 POP POP SWAP3 SWAP2 POP POP JUMP JUMPDEST PUSH0 DUP2 ISZERO ISZERO SWAP1 POP SWAP2 SWAP1 POP JUMP JUMPDEST PUSH2 0x2397 DUP2 PUSH2 0x2383 JUMP JUMPDEST DUP3 MSTORE POP POP JUMP JUMPDEST PUSH0 PUSH1 0x20 DUP3 ADD SWAP1 POP PUSH2 0x23B0 PUSH0 DUP4 ADD DUP5 PUSH2 0x238E JUMP JUMPDEST SWAP3 SWAP2 POP POP JUMP JUMPDEST PUSH0 DUP2 MLOAD SWAP1 POP SWAP2 SWAP1 POP JUMP JUMPDEST PUSH0 DUP3 DUP3 MSTORE PUSH1 0x20 DUP3 ADD SWAP1 POP SWAP3 SWAP2 POP POP JUMP JUMPDEST DUP3 DUP2 DUP4 MCOPY PUSH0 DUP4 DUP4 ADD MSTORE POP POP POP JUMP JUMPDEST PUSH0 PUSH1 0x1F NOT PUSH1 0x1F DUP4 ADD AND SWAP1 POP SWAP2 SWAP1 POP JUMP JUMPDEST PUSH0 PUSH2 0x23F8 DUP3 PUSH2 0x23B6 JUMP JUMPDEST PUSH2 0x2402 DUP2 DUP6 PUSH2 0x23C0 JUMP JUMPDEST SWAP4 POP PUSH2 0x2412 DUP2 DUP6 PUSH1 0x20 DUP7 ADD PUSH2 0x23D0 JUMP JUMPDEST PUSH2 0x241B DUP2 PUSH2 0x23DE JUMP JUMPDEST DUP5 ADD SWAP2 POP POP SWAP3 SWAP2 POP POP JUMP JUMPDEST PUSH0 PUSH1 0x20 DUP3 ADD SWAP1 POP DUP2 DUP2 SUB PUSH0 DUP4 ADD MSTORE PUSH2 0x243E DUP2 DUP5 PUSH2 0x23EE JUMP JUMPDEST SWAP1 POP SWAP3 SWAP2 POP POP JUMP JUMPDEST PUSH0 DUP2 SWAP1 POP SWAP2 SWAP1 POP JUMP JUMPDEST PUSH2 0x2458 DUP2 PUSH2 0x2446 JUMP JUMPDEST DUP2 EQ PUSH2 0x2462 JUMPI PUSH0 DUP1 REVERT JUMPDEST POP JUMP JUMPDEST PUSH0 DUP2 CALLDATALOAD SWAP1 POP PUSH2 0x2473 DUP2 PUSH2 0x244F JUMP JUMPDEST SWAP3 SWAP2 POP POP JUMP JUMPDEST PUSH0 PUSH1 0x20 DUP3 DUP5 SUB SLT ISZERO PUSH2 0x248E JUMPI PUSH2 0x248D PUSH2 0x22FB JUMP JUMPDEST JUMPDEST PUSH0 PUSH2 0x249B DUP5 DUP3 DUP6 ADD PUSH2 0x2465 JUMP JUMPDEST SWAP2 POP POP SWAP3 SWAP2 POP POP JUMP JUMPDEST PUSH0 PUSH20 0xFFFFFFFFFFFFFFFFFFFFFFFFFFFFFFFFFFFFFFFF DUP3 AND SWAP1 POP SWAP2 SWAP1 POP JUMP JUMPDEST PUSH0 PUSH2 0x24CD DUP3 PUSH2 0x24A4 JUMP JUMPDEST SWAP1 POP SWAP2 SWAP1 POP JUMP JUMPDEST PUSH2 0x24DD DUP2 PUSH2 0x24C3 JUMP JUMPDEST DUP3 MSTORE POP POP JUMP JUMPDEST PUSH0 PUSH1 0x20 DUP3 ADD SWAP1 POP PUSH2 0x24F6 PUSH0 DUP4 ADD DUP5 PUSH2 0x24D4 JUMP JUMPDEST SWAP3 SWAP2 POP POP JUMP JUMPDEST PUSH2 0x2505 DUP2 PUSH2 0x24C3 JUMP JUMPDEST DUP2 EQ PUSH2 0x250F JUMPI PUSH0 DUP1 REVERT JUMPDEST POP JUMP JUMPDEST PUSH0 DUP2 CALLDATALOAD SWAP1 POP PUSH2 0x2520 DUP2 PUSH2 0x24FC JUMP JUMPDEST SWAP3 SWAP2 POP POP JUMP JUMPDEST PUSH0 DUP1 PUSH1 0x40 DUP4 DUP6 SUB SLT ISZERO PUSH2 0x253C JUMPI PUSH2 0x253B PUSH2 0x22FB JUMP JUMPDEST JUMPDEST PUSH0 PUSH2 0x2549 DUP6 DUP3 DUP7 ADD PUSH2 0x2512 JUMP JUMPDEST SWAP3 POP POP PUSH1 0x20 PUSH2 0x255A DUP6 DUP3 DUP7 ADD PUSH2 0x2465 JUMP JUMPDEST SWAP2 POP POP SWAP3 POP SWAP3 SWAP1 POP JUMP JUMPDEST PUSH0 DUP2 SWAP1 POP SWAP2 SWAP1 POP JUMP JUMPDEST PUSH0 PUSH2 0x2587 PUSH2 0x2582 PUSH2 0x257D DUP5 PUSH2 0x24A4 JUMP JUMPDEST PUSH2 0x2564 JUMP JUMPDEST PUSH2 0x24A4 JUMP JUMPDEST SWAP1 POP SWAP2 SWAP1 POP JUMP JUMPDEST PUSH0 PUSH2 0x2598 DUP3 PUSH2 0x256D JUMP JUMPDEST SWAP1 POP SWAP2 SWAP1 POP JUMP JUMPDEST PUSH0 PUSH2 0x25A9 DUP3 PUSH2 0x258E JUMP JUMPDEST SWAP1 POP SWAP2 SWAP1 POP JUMP JUMPDEST PUSH2 0x25B9 DUP2 PUSH2 0x259F JUMP JUMPDEST DUP3 MSTORE POP POP JUMP JUMPDEST PUSH0 PUSH1 0x20 DUP3 ADD SWAP1 POP PUSH2 0x25D2 PUSH0 DUP4 ADD DUP5 PUSH2 0x25B0 JUMP JUMPDEST SWAP3 SWAP2 POP POP JUMP JUMPDEST PUSH0 DUP1 PUSH0 PUSH1 0x60 DUP5 DUP7 SUB SLT ISZERO PUSH2 0x25EF JUMPI PUSH2 0x25EE PUSH2 0x22FB JUMP JUMPDEST JUMPDEST PUSH0 PUSH2 0x25FC DUP7 DUP3 DUP8 ADD PUSH2 0x2512 JUMP JUMPDEST SWAP4 POP POP PUSH1 0x20 PUSH2 0x260D DUP7 DUP3 DUP8 ADD PUSH2 0x2512 JUMP JUMPDEST SWAP3 POP POP PUSH1 0x40 PUSH2 0x261E DUP7 DUP3 DUP8 ADD PUSH2 0x2465 JUMP JUMPDEST SWAP2 POP POP SWAP3 POP SWAP3 POP SWAP3 JUMP JUMPDEST PUSH0 DUP1 REVERT JUMPDEST PUSH32 0x4E487B7100000000000000000000000000000000000000000000000000000000 PUSH0 MSTORE PUSH1 0x41 PUSH1 0x4 MSTORE PUSH1 0x24 PUSH0 REVERT JUMPDEST PUSH2 0x2662 DUP3 PUSH2 0x23DE JUMP JUMPDEST DUP2 ADD DUP2 DUP2 LT PUSH8 0xFFFFFFFFFFFFFFFF DUP3 GT OR ISZERO PUSH2 0x2681 JUMPI PUSH2 0x2680 PUSH2 0x262C JUMP JUMPDEST JUMPDEST DUP1 PUSH1 0x40 MSTORE POP POP POP JUMP JUMPDEST PUSH0 PUSH2 0x2693 PUSH2 0x22F2 JUMP JUMPDEST SWAP1 POP PUSH2 0x269F DUP3 DUP3 PUSH2 0x2659 JUMP JUMPDEST SWAP2 SWAP1 POP JUMP JUMPDEST PUSH0 PUSH8 0xFFFFFFFFFFFFFFFF DUP3 GT ISZERO PUSH2 0x26BE JUMPI PUSH2 0x26BD PUSH2 0x262C JUMP JUMPDEST JUMPDEST PUSH1 0x20 DUP3 MUL SWAP1 POP PUSH1 0x20 DUP2 ADD SWAP1 POP SWAP2 SWAP1 POP JUMP JUMPDEST PUSH0 DUP1 REVERT JUMPDEST PUSH0 PUSH2 0x26E5 PUSH2 0x26E0 DUP5 PUSH2 0x26A4 JUMP JUMPDEST PUSH2 0x268A JUMP JUMPDEST SWAP1 POP DUP1 DUP4 DUP3 MSTORE PUSH1 0x20 DUP3 ADD SWAP1 POP PUSH1 0x20 DUP5 MUL DUP4 ADD DUP6 DUP2 GT ISZERO PUSH2 0x2708 JUMPI PUSH2 0x2707 PUSH2 0x26CF JUMP JUMPDEST JUMPDEST DUP4 JUMPDEST DUP2 DUP2 LT ISZERO PUSH2 0x2731 JUMPI DUP1 PUSH2 0x271D DUP9 DUP3 PUSH2 0x2465 JUMP JUMPDEST DUP5 MSTORE PUSH1 0x20 DUP5 ADD SWAP4 POP POP PUSH1 0x20 DUP2 ADD SWAP1 POP PUSH2 0x270A JUMP JUMPDEST POP POP POP SWAP4 SWAP3 POP POP POP JUMP JUMPDEST PUSH0 DUP3 PUSH1 0x1F DUP4 ADD SLT PUSH2 0x274F JUMPI PUSH2 0x274E PUSH2 0x2628 JUMP JUMPDEST JUMPDEST DUP2 CALLDATALOAD PUSH2 0x275F DUP5 DUP3 PUSH1 0x20 DUP7 ADD PUSH2 0x26D3 JUMP JUMPDEST SWAP2 POP POP SWAP3 SWAP2 POP POP JUMP JUMPDEST PUSH0 PUSH8 0xFFFFFFFFFFFFFFFF DUP3 GT ISZERO PUSH2 0x2782 JUMPI PUSH2 0x2781 PUSH2 0x262C JUMP JUMPDEST JUMPDEST PUSH1 0x20 DUP3 MUL SWAP1 POP PUSH1 0x20 DUP2 ADD SWAP1 POP SWAP2 SWAP1 POP JUMP JUMPDEST PUSH0 DUP1 REVERT JUMPDEST PUSH0 PUSH8 0xFFFFFFFFFFFFFFFF DUP3 GT ISZERO PUSH2 0x27B1 JUMPI PUSH2 0x27B0 PUSH2 0x262C JUMP JUMPDEST JUMPDEST PUSH2 0x27BA DUP3 PUSH2 0x23DE JUMP JUMPDEST SWAP1 POP PUSH1 0x20 DUP2 ADD SWAP1 POP SWAP2 SWAP1 POP JUMP JUMPDEST DUP3 DUP2 DUP4 CALLDATACOPY PUSH0 DUP4 DUP4 ADD MSTORE POP POP POP JUMP JUMPDEST PUSH0 PUSH2 0x27E7 PUSH2 0x27E2 DUP5 PUSH2 0x2797 JUMP JUMPDEST PUSH2 0x268A JUMP JUMPDEST SWAP1 POP DUP3 DUP2 MSTORE PUSH1 0x20 DUP2 ADD DUP5 DUP5 DUP5 ADD GT ISZERO PUSH2 0x2803 JUMPI PUSH2 0x2802 PUSH2 0x2793 JUMP JUMPDEST JUMPDEST PUSH2 0x280E DUP5 DUP3 DUP6 PUSH2 0x27C7 JUMP JUMPDEST POP SWAP4 SWAP3 POP POP POP JUMP JUMPDEST PUSH0 DUP3 PUSH1 0x1F DUP4 ADD SLT PUSH2 0x282A JUMPI PUSH2 0x2829 PUSH2 0x2628 JUMP JUMPDEST JUMPDEST DUP2 CALLDATALOAD PUSH2 0x283A DUP5 DUP3 PUSH1 0x20 DUP7 ADD PUSH2 0x27D5 JUMP JUMPDEST SWAP2 POP POP SWAP3 SWAP2 POP POP JUMP JUMPDEST PUSH0 PUSH2 0x2855 PUSH2 0x2850 DUP5 PUSH2 0x2768 JUMP JUMPDEST PUSH2 0x268A JUMP JUMPDEST SWAP1 POP DUP1 DUP4 DUP3 MSTORE PUSH1 0x20 DUP3 ADD SWAP1 POP PUSH1 0x20 DUP5 MUL DUP4 ADD DUP6 DUP2 GT ISZERO PUSH2 0x2878 JUMPI PUSH2 0x2877 PUSH2 0x26CF JUMP JUMPDEST JUMPDEST DUP4 JUMPDEST DUP2 DUP2 LT ISZERO PUSH2 0x28BF JUMPI DUP1 CALLDATALOAD PUSH8 0xFFFFFFFFFFFFFFFF DUP2 GT ISZERO PUSH2 0x289D JUMPI PUSH2 0x289C PUSH2 0x2628 JUMP JUMPDEST JUMPDEST DUP1 DUP7 ADD PUSH2 0x28AA DUP10 DUP3 PUSH2 0x2816 JUMP JUMPDEST DUP6 MSTORE PUSH1 0x20 DUP6 ADD SWAP5 POP POP POP PUSH1 0x20 DUP2 ADD SWAP1 POP PUSH2 0x287A JUMP JUMPDEST POP POP POP SWAP4 SWAP3 POP POP POP JUMP JUMPDEST PUSH0 DUP3 PUSH1 0x1F DUP4 ADD SLT PUSH2 0x28DD JUMPI PUSH2 0x28DC PUSH2 0x2628 JUMP JUMPDEST JUMPDEST DUP2 CALLDATALOAD PUSH2 0x28ED DUP5 DUP3 PUSH1 0x20 DUP7 ADD PUSH2 0x2843 JUMP JUMPDEST SWAP2 POP POP SWAP3 SWAP2 POP POP JUMP JUMPDEST PUSH0 DUP1 PUSH0 DUP1 PUSH1 0x80 DUP6 DUP8 SUB SLT ISZERO PUSH2 0x290E JUMPI PUSH2 0x290D PUSH2 0x22FB JUMP JUMPDEST JUMPDEST PUSH0 PUSH2 0x291B DUP8 DUP3 DUP9 ADD PUSH2 0x2512 JUMP JUMPDEST SWAP5 POP POP PUSH1 0x20 DUP6 ADD CALLDATALOAD PUSH8 0xFFFFFFFFFFFFFFFF DUP2 GT ISZERO PUSH2 0x293C JUMPI PUSH2 0x293B PUSH2 0x22FF JUMP JUMPDEST JUMPDEST PUSH2 0x2948 DUP8 DUP3 DUP9 ADD PUSH2 0x273B JUMP JUMPDEST SWAP4 POP POP PUSH1 0x40 DUP6 ADD CALLDATALOAD PUSH8 0xFFFFFFFFFFFFFFFF DUP2 GT ISZERO PUSH2 0x2969 JUMPI PUSH2 0x2968 PUSH2 0x22FF JUMP JUMPDEST JUMPDEST PUSH2 0x2975 DUP8 DUP3 DUP9 ADD PUSH2 0x28C9 JUMP JUMPDEST SWAP3 POP POP PUSH1 0x60 PUSH2 0x2986 DUP8 DUP3 DUP9 ADD PUSH2 0x2512 JUMP JUMPDEST SWAP2 POP POP SWAP3 SWAP6 SWAP2 SWAP5 POP SWAP3 POP JUMP JUMPDEST PUSH2 0x299B DUP2 PUSH2 0x2446 JUMP JUMPDEST DUP3 MSTORE POP POP JUMP JUMPDEST PUSH0 PUSH1 0x20 DUP3 ADD SWAP1 POP PUSH2 0x29B4 PUSH0 DUP4 ADD DUP5 PUSH2 0x2992 JUMP JUMPDEST SWAP3 SWAP2 POP POP JUMP JUMPDEST PUSH0 DUP1 REVERT JUMPDEST PUSH0 DUP1 DUP4 PUSH1 0x1F DUP5 ADD SLT PUSH2 0x29D3 JUMPI PUSH2 0x29D2 PUSH2 0x2628 JUMP JUMPDEST JUMPDEST DUP3 CALLDATALOAD SWAP1 POP PUSH8 0xFFFFFFFFFFFFFFFF DUP2 GT ISZERO PUSH2 0x29F0 JUMPI PUSH2 0x29EF PUSH2 0x29BA JUMP JUMPDEST JUMPDEST PUSH1 0x20 DUP4 ADD SWAP2 POP DUP4 PUSH1 0x1 DUP3 MUL DUP4 ADD GT ISZERO PUSH2 0x2A0C JUMPI PUSH2 0x2A0B PUSH2 0x26CF JUMP JUMPDEST JUMPDEST SWAP3 POP SWAP3 SWAP1 POP JUMP JUMPDEST PUSH0 DUP1 PUSH1 0x20 DUP4 DUP6 SUB SLT ISZERO PUSH2 0x2A29 JUMPI PUSH2 0x2A28 PUSH2 0x22FB JUMP JUMPDEST JUMPDEST PUSH0 DUP4 ADD CALLDATALOAD PUSH8 0xFFFFFFFFFFFFFFFF DUP2 GT ISZERO PUSH2 0x2A46 JUMPI PUSH2 0x2A45 PUSH2 0x22FF JUMP JUMPDEST JUMPDEST PUSH2 0x2A52 DUP6 DUP3 DUP7 ADD PUSH2 0x29BE JUMP JUMPDEST SWAP3 POP SWAP3 POP POP SWAP3 POP SWAP3 SWAP1 POP JUMP JUMPDEST PUSH0 DUP2 MLOAD SWAP1 POP SWAP2 SWAP1 POP JUMP JUMPDEST PUSH0 DUP3 DUP3 MSTORE PUSH1 0x20 DUP3 ADD SWAP1 POP SWAP3 SWAP2 POP POP JUMP JUMPDEST PUSH0 PUSH2 0x2A82 DUP3 PUSH2 0x2A5E JUMP JUMPDEST PUSH2 0x2A8C DUP2 DUP6 PUSH2 0x2A68 JUMP JUMPDEST SWAP4 POP PUSH2 0x2A9C DUP2 DUP6 PUSH1 0x20 DUP7 ADD PUSH2 0x23D0 JUMP JUMPDEST PUSH2 0x2AA5 DUP2 PUSH2 0x23DE JUMP JUMPDEST DUP5 ADD SWAP2 POP POP SWAP3 SWAP2 POP POP JUMP JUMPDEST PUSH0 PUSH1 0x40 DUP3 ADD SWAP1 POP PUSH2 0x2AC3 PUSH0 DUP4 ADD DUP6 PUSH2 0x238E JUMP JUMPDEST DUP2 DUP2 SUB PUSH1 0x20 DUP4 ADD MSTORE PUSH2 0x2AD5 DUP2 DUP5 PUSH2 0x2A78 JUMP JUMPDEST SWAP1 POP SWAP4 SWAP3 POP POP POP JUMP JUMPDEST PUSH0 PUSH1 0x20 DUP3 DUP5 SUB SLT ISZERO PUSH2 0x2AF3 JUMPI PUSH2 0x2AF2 PUSH2 0x22FB JUMP JUMPDEST JUMPDEST PUSH0 PUSH2 0x2B00 DUP5 DUP3 DUP6 ADD PUSH2 0x2512 JUMP JUMPDEST SWAP2 POP POP SWAP3 SWAP2 POP POP JUMP JUMPDEST PUSH0 DUP2 SWAP1 POP SWAP2 SWAP1 POP JUMP JUMPDEST PUSH2 0x2B1B DUP2 PUSH2 0x2B09 JUMP JUMPDEST DUP3 MSTORE POP POP JUMP JUMPDEST PUSH0 PUSH1 0x20 DUP3 ADD SWAP1 POP PUSH2 0x2B34 PUSH0 DUP4 ADD DUP5 PUSH2 0x2B12 JUMP JUMPDEST SWAP3 SWAP2 POP POP JUMP JUMPDEST PUSH2 0x2B43 DUP2 PUSH2 0x2B09 JUMP JUMPDEST DUP2 EQ PUSH2 0x2B4D JUMPI PUSH0 DUP1 REVERT JUMPDEST POP JUMP JUMPDEST PUSH0 DUP2 CALLDATALOAD SWAP1 POP PUSH2 0x2B5E DUP2 PUSH2 0x2B3A JUMP JUMPDEST SWAP3 SWAP2 POP POP JUMP JUMPDEST PUSH0 DUP1 PUSH1 0x40 DUP4 DUP6 SUB SLT ISZERO PUSH2 0x2B7A JUMPI PUSH2 0x2B79 PUSH2 0x22FB JUMP JUMPDEST JUMPDEST PUSH0 PUSH2 0x2B87 DUP6 DUP3 DUP7 ADD PUSH2 0x2B50 JUMP JUMPDEST SWAP3 POP POP PUSH1 0x20 PUSH2 0x2B98 DUP6 DUP3 DUP7 ADD PUSH2 0x2465 JUMP JUMPDEST SWAP2 POP POP SWAP3 POP SWAP3 SWAP1 POP JUMP JUMPDEST PUSH2 0x2BAB DUP2 PUSH2 0x2383 JUMP JUMPDEST DUP2 EQ PUSH2 0x2BB5 JUMPI PUSH0 DUP1 REVERT JUMPDEST POP JUMP JUMPDEST PUSH0 DUP2 CALLDATALOAD SWAP1 POP PUSH2 0x2BC6 DUP2 PUSH2 0x2BA2 JUMP JUMPDEST SWAP3 SWAP2 POP POP JUMP JUMPDEST PUSH0 DUP1 PUSH1 0x40 DUP4 DUP6 SUB SLT ISZERO PUSH2 0x2BE2 JUMPI PUSH2 0x2BE1 PUSH2 0x22FB JUMP JUMPDEST JUMPDEST PUSH0 PUSH2 0x2BEF DUP6 DUP3 DUP7 ADD PUSH2 0x2512 JUMP JUMPDEST SWAP3 POP POP PUSH1 0x20 PUSH2 0x2C00 DUP6 DUP3 DUP7 ADD PUSH2 0x2BB8 JUMP JUMPDEST SWAP2 POP POP SWAP3 POP SWAP3 SWAP1 POP JUMP JUMPDEST PUSH0 PUSH8 0xFFFFFFFFFFFFFFFF DUP3 GT ISZERO PUSH2 0x2C24 JUMPI PUSH2 0x2C23 PUSH2 0x262C JUMP JUMPDEST JUMPDEST PUSH2 0x2C2D DUP3 PUSH2 0x23DE JUMP JUMPDEST SWAP1 POP PUSH1 0x20 DUP2 ADD SWAP1 POP SWAP2 SWAP1 POP JUMP JUMPDEST PUSH0 PUSH2 0x2C4C PUSH2 0x2C47 DUP5 PUSH2 0x2C0A JUMP JUMPDEST PUSH2 0x268A JUMP JUMPDEST SWAP1 POP DUP3 DUP2 MSTORE PUSH1 0x20 DUP2 ADD DUP5 DUP5 DUP5 ADD GT ISZERO PUSH2 0x2C68 JUMPI PUSH2 0x2C67 PUSH2 0x2793 JUMP JUMPDEST JUMPDEST PUSH2 0x2C73 DUP5 DUP3 DUP6 PUSH2 0x27C7 JUMP JUMPDEST POP SWAP4 SWAP3 POP POP POP JUMP JUMPDEST PUSH0 DUP3 PUSH1 0x1F DUP4 ADD SLT PUSH2 0x2C8F JUMPI PUSH2 0x2C8E PUSH2 0x2628 JUMP JUMPDEST JUMPDEST DUP2 CALLDATALOAD PUSH2 0x2C9F DUP5 DUP3 PUSH1 0x20 DUP7 ADD PUSH2 0x2C3A JUMP JUMPDEST SWAP2 POP POP SWAP3 SWAP2 POP POP JUMP JUMPDEST PUSH0 DUP1 PUSH0 DUP1 PUSH1 0x80 DUP6 DUP8 SUB SLT ISZERO PUSH2 0x2CC0 JUMPI PUSH2 0x2CBF PUSH2 0x22FB JUMP JUMPDEST JUMPDEST PUSH0 PUSH2 0x2CCD DUP8 DUP3 DUP9 ADD PUSH2 0x2512 JUMP JUMPDEST SWAP5 POP POP PUSH1 0x20 PUSH2 0x2CDE DUP8 DUP3 DUP9 ADD PUSH2 0x2512 JUMP JUMPDEST SWAP4 POP POP PUSH1 0x40 PUSH2 0x2CEF DUP8 DUP3 DUP9 ADD PUSH2 0x2465 JUMP JUMPDEST SWAP3 POP POP PUSH1 0x60 DUP6 ADD CALLDATALOAD PUSH8 0xFFFFFFFFFFFFFFFF DUP2 GT ISZERO PUSH2 0x2D10 JUMPI PUSH2 0x2D0F PUSH2 0x22FF JUMP JUMPDEST JUMPDEST PUSH2 0x2D1C DUP8 DUP3 DUP9 ADD PUSH2 0x2C7B JUMP JUMPDEST SWAP2 POP POP SWAP3 SWAP6 SWAP2 SWAP5 POP SWAP3 POP JUMP JUMPDEST PUSH0 DUP1 PUSH1 0x40 DUP4 DUP6 SUB SLT ISZERO PUSH2 0x2D3E JUMPI PUSH2 0x2D3D PUSH2 0x22FB JUMP JUMPDEST JUMPDEST PUSH0 PUSH2 0x2D4B DUP6 DUP3 DUP7 ADD PUSH2 0x2465 JUMP JUMPDEST SWAP3 POP POP PUSH1 0x20 PUSH2 0x2D5C DUP6 DUP3 DUP7 ADD PUSH2 0x2465 JUMP JUMPDEST SWAP2 POP POP SWAP3 POP SWAP3 SWAP1 POP JUMP JUMPDEST PUSH0 DUP1 PUSH1 0x40 DUP4 DUP6 SUB SLT ISZERO PUSH2 0x2D7C JUMPI PUSH2 0x2D7B PUSH2 0x22FB JUMP JUMPDEST JUMPDEST PUSH0 PUSH2 0x2D89 DUP6 DUP3 DUP7 ADD PUSH2 0x2512 JUMP JUMPDEST SWAP3 POP POP PUSH1 0x20 PUSH2 0x2D9A DUP6 DUP3 DUP7 ADD PUSH2 0x2512 JUMP JUMPDEST SWAP2 POP POP SWAP3 POP SWAP3 SWAP1 POP JUMP JUMPDEST PUSH32 0x4E487B7100000000000000000000000000000000000000000000000000000000 PUSH0 MSTORE PUSH1 0x22 PUSH1 0x4 MSTORE PUSH1 0x24 PUSH0 REVERT JUMPDEST PUSH0 PUSH1 0x2 DUP3 DIV SWAP1 POP PUSH1 0x1 DUP3 AND DUP1 PUSH2 0x2DE8 JUMPI PUSH1 0x7F DUP3 AND SWAP2 POP JUMPDEST PUSH1 0x20 DUP3 LT DUP2 SUB PUSH2 0x2DFB JUMPI PUSH2 0x2DFA PUSH2 0x2DA4 JUMP JUMPDEST JUMPDEST POP SWAP2 SWAP1 POP JUMP JUMPDEST PUSH32 0x4552433732313A20617070726F76656420717565727920666F72206E6F6E6578 PUSH0 DUP3 ADD MSTORE PUSH32 0x697374656E7420746F6B656E0000000000000000000000000000000000000000 PUSH1 0x20 DUP3 ADD MSTORE POP JUMP JUMPDEST PUSH0 PUSH2 0x2E5B PUSH1 0x2C DUP4 PUSH2 0x23C0 JUMP JUMPDEST SWAP2 POP PUSH2 0x2E66 DUP3 PUSH2 0x2E01 JUMP JUMPDEST PUSH1 0x40 DUP3 ADD SWAP1 POP SWAP2 SWAP1 POP JUMP JUMPDEST PUSH0 PUSH1 0x20 DUP3 ADD SWAP1 POP DUP2 DUP2 SUB PUSH0 DUP4 ADD MSTORE PUSH2 0x2E88 DUP2 PUSH2 0x2E4F JUMP JUMPDEST SWAP1 POP SWAP2 SWAP1 POP JUMP JUMPDEST PUSH32 0x4552433732313A20617070726F76616C20746F2063757272656E74206F776E65 PUSH0 DUP3 ADD MSTORE PUSH32 0x7200000000000000000000000000000000000000000000000000000000000000 PUSH1 0x20 DUP3 ADD MSTORE POP JUMP JUMPDEST PUSH0 PUSH2 0x2EE9 PUSH1 0x21 DUP4 PUSH2 0x23C0 JUMP JUMPDEST SWAP2 POP PUSH2 0x2EF4 DUP3 PUSH2 0x2E8F JUMP JUMPDEST PUSH1 0x40 DUP3 ADD SWAP1 POP SWAP2 SWAP1 POP JUMP JUMPDEST PUSH0 PUSH1 0x20 DUP3 ADD SWAP1 POP DUP2 DUP2 SUB PUSH0 DUP4 ADD MSTORE PUSH2 0x2F16 DUP2 PUSH2 0x2EDD JUMP JUMPDEST SWAP1 POP SWAP2 SWAP1 POP JUMP JUMPDEST PUSH32 0x4552433732313A20617070726F76652063616C6C6572206973206E6F74206F77 PUSH0 DUP3 ADD MSTORE PUSH32 0x6E6572206E6F7220617070726F76656420666F7220616C6C0000000000000000 PUSH1 0x20 DUP3 ADD MSTORE POP JUMP JUMPDEST PUSH0 PUSH2 0x2F77 PUSH1 0x38 DUP4 PUSH2 0x23C0 JUMP JUMPDEST SWAP2 POP PUSH2 0x2F82 DUP3 PUSH2 0x2F1D JUMP JUMPDEST PUSH1 0x40 DUP3 ADD SWAP1 POP SWAP2 SWAP1 POP JUMP JUMPDEST PUSH0 PUSH1 0x20 DUP3 ADD SWAP1 POP DUP2 DUP2 SUB PUSH0 DUP4 ADD MSTORE PUSH2 0x2FA4 DUP2 PUSH2 0x2F6B JUMP JUMPDEST SWAP1 POP SWAP2 SWAP1 POP JUMP JUMPDEST PUSH32 0x4F776E61626C653A2063616C6C6572206973206E6F7420746865206F776E6572 PUSH0 DUP3 ADD MSTORE POP JUMP JUMPDEST PUSH0 PUSH2 0x2FDF PUSH1 0x20 DUP4 PUSH2 0x23C0 JUMP JUMPDEST SWAP2 POP PUSH2 0x2FEA DUP3 PUSH2 0x2FAB JUMP JUMPDEST PUSH1 0x20 DUP3 ADD SWAP1 POP SWAP2 SWAP1 POP JUMP JUMPDEST PUSH0 PUSH1 0x20 DUP3 ADD SWAP1 POP DUP2 DUP2 SUB PUSH0 DUP4 ADD MSTORE PUSH2 0x300C DUP2 PUSH2 0x2FD3 JUMP JUMPDEST SWAP1 POP SWAP2 SWAP1 POP JUMP JUMPDEST PUSH32 0x4552433732313A207472616E736665722063616C6C6572206973206E6F74206F PUSH0 DUP3 ADD MSTORE PUSH32 0x776E6572206E6F7220617070726F766564000000000000000000000000000000 PUSH1 0x20 DUP3 ADD MSTORE POP JUMP JUMPDEST PUSH0 PUSH2 0x306D PUSH1 0x31 DUP4 PUSH2 0x23C0 JUMP JUMPDEST SWAP2 POP PUSH2 0x3078 DUP3 PUSH2 0x3013 JUMP JUMPDEST PUSH1 0x40 DUP3 ADD SWAP1 POP SWAP2 SWAP1 POP JUMP JUMPDEST PUSH0 PUSH1 0x20 DUP3 ADD SWAP1 POP DUP2 DUP2 SUB PUSH0 DUP4 ADD MSTORE PUSH2 0x309A DUP2 PUSH2 0x3061 JUMP JUMPDEST SWAP1 POP SWAP2 SWAP1 POP JUMP JUMPDEST PUSH32 0x4E487B7100000000000000000000000000000000000000000000000000000000 PUSH0 MSTORE PUSH1 0x32 PUSH1 0x4 MSTORE PUSH1 0x24 PUSH0 REVERT JUMPDEST PUSH0 DUP2 SWAP1 POP DUP2 PUSH0 MSTORE PUSH1 0x20 PUSH0 KECCAK256 SWAP1 POP SWAP2 SWAP1 POP JUMP JUMPDEST PUSH0 PUSH1 0x20 PUSH1 0x1F DUP4 ADD DIV SWAP1 POP SWAP2 SWAP1 POP JUMP JUMPDEST PUSH0 DUP3 DUP3 SHL SWAP1 POP SWAP3 SWAP2 POP POP JUMP JUMPDEST PUSH0 PUSH1 0x8 DUP4 MUL PUSH2 0x312A PUSH32 0xFFFFFFFFFFFFFFFFFFFFFFFFFFFFFFFFFFFFFFFFFFFFFFFFFFFFFFFFFFFFFFFF DUP3 PUSH2 0x30EF JUMP JUMPDEST PUSH2 0x3134 DUP7 DUP4 PUSH2 0x30EF JUMP JUMPDEST SWAP6 POP DUP1 NOT DUP5 AND SWAP4 POP DUP1 DUP7 AND DUP5 OR SWAP3 POP POP POP SWAP4 SWAP3 POP POP POP JUMP JUMPDEST PUSH0 PUSH2 0x3166 PUSH2 0x3161 PUSH2 0x315C DUP5 PUSH2 0x2446 JUMP JUMPDEST PUSH2 0x2564 JUMP JUMPDEST PUSH2 0x2446 JUMP JUMPDEST SWAP1 POP SWAP2 SWAP1 POP JUMP JUMPDEST PUSH0 DUP2 SWAP1 POP SWAP2 SWAP1 POP JUMP JUMPDEST PUSH2 0x317F DUP4 PUSH2 0x314C JUMP JUMPDEST PUSH2 0x3193 PUSH2 0x318B DUP3 PUSH2 0x316D JUMP JUMPDEST DUP5 DUP5 SLOAD PUSH2 0x30FB JUMP JUMPDEST DUP3 SSTORE POP POP POP POP JUMP JUMPDEST PUSH0 SWAP1 JUMP JUMPDEST PUSH2 0x31A7 PUSH2 0x319B JUMP JUMPDEST PUSH2 0x31B2 DUP2 DUP5 DUP5 PUSH2 0x3176 JUMP JUMPDEST POP POP POP JUMP JUMPDEST JUMPDEST DUP2 DUP2 LT ISZERO PUSH2 0x31D5 JUMPI PUSH2 0x31CA PUSH0 DUP3 PUSH2 0x319F JUMP JUMPDEST PUSH1 0x1 DUP2 ADD SWAP1 POP PUSH2 0x31B8 JUMP JUMPDEST POP POP JUMP JUMPDEST PUSH1 0x1F DUP3 GT ISZERO PUSH2 0x321A JUMPI PUSH2 0x31EB DUP2 PUSH2 0x30CE JUMP JUMPDEST PUSH2 0x31F4 DUP5 PUSH2 0x30E0 JUMP JUMPDEST DUP2 ADD PUSH1 0x20 DUP6 LT ISZERO PUSH2 0x3203 JUMPI DUP2 SWAP1 POP JUMPDEST PUSH2 0x3217 PUSH2 0x320F DUP6 PUSH2 0x30E0 JUMP JUMPDEST DUP4 ADD DUP3 PUSH2 0x31B7 JUMP JUMPDEST POP POP JUMPDEST POP POP POP JUMP JUMPDEST PUSH0 DUP3 DUP3 SHR SWAP1 POP SWAP3 SWAP2 POP POP JUMP JUMPDEST PUSH0 PUSH2 0x323A PUSH0 NOT DUP5 PUSH1 0x8 MUL PUSH2 0x321F JUMP JUMPDEST NOT DUP1 DUP4 AND SWAP2 POP POP SWAP3 SWAP2 POP POP JUMP JUMPDEST PUSH0 PUSH2 0x3252 DUP4 DUP4 PUSH2 0x322B JUMP JUMPDEST SWAP2 POP DUP3 PUSH1 0x2 MUL DUP3 OR SWAP1 POP SWAP3 SWAP2 POP POP JUMP JUMPDEST PUSH2 0x326B DUP3 PUSH2 0x23B6 JUMP JUMPDEST PUSH8 0xFFFFFFFFFFFFFFFF DUP2 GT ISZERO PUSH2 0x3284 JUMPI PUSH2 0x3283 PUSH2 0x262C JUMP JUMPDEST JUMPDEST PUSH2 0x328E DUP3 SLOAD PUSH2 0x2DD1 JUMP JUMPDEST PUSH2 0x3299 DUP3 DUP3 DUP6 PUSH2 0x31D9 JUMP JUMPDEST PUSH0 PUSH1 0x20 SWAP1 POP PUSH1 0x1F DUP4 GT PUSH1 0x1 DUP2 EQ PUSH2 0x32CA JUMPI PUSH0 DUP5 ISZERO PUSH2 0x32B8 JUMPI DUP3 DUP8 ADD MLOAD SWAP1 POP JUMPDEST PUSH2 0x32C2 DUP6 DUP3 PUSH2 0x3247 JUMP JUMPDEST DUP7 SSTORE POP PUSH2 0x3329 JUMP JUMPDEST PUSH1 0x1F NOT DUP5 AND PUSH2 0x32D8 DUP7 PUSH2 0x30CE JUMP JUMPDEST PUSH0 JUMPDEST DUP3 DUP2 LT ISZERO PUSH2 0x32FF JUMPI DUP5 DUP10 ADD MLOAD DUP3 SSTORE PUSH1 0x1 DUP3 ADD SWAP2 POP PUSH1 0x20 DUP6 ADD SWAP5 POP PUSH1 0x20 DUP2 ADD SWAP1 POP PUSH2 0x32DA JUMP JUMPDEST DUP7 DUP4 LT ISZERO PUSH2 0x331C JUMPI DUP5 DUP10 ADD MLOAD PUSH2 0x3318 PUSH1 0x1F DUP10 AND DUP3 PUSH2 0x322B JUMP JUMPDEST DUP4 SSTORE POP JUMPDEST PUSH1 0x1 PUSH1 0x2 DUP9 MUL ADD DUP9 SSTORE POP POP POP JUMPDEST POP POP POP POP POP POP JUMP JUMPDEST PUSH32 0x4E487B7100000000000000000000000000000000000000000000000000000000 PUSH0 MSTORE PUSH1 0x11 PUSH1 0x4 MSTORE PUSH1 0x24 PUSH0 REVERT JUMPDEST PUSH0 PUSH2 0x3368 DUP3 PUSH2 0x2446 JUMP JUMPDEST SWAP2 POP PUSH2 0x3373 DUP4 PUSH2 0x2446 JUMP JUMPDEST SWAP3 POP DUP3 DUP3 ADD SWAP1 POP DUP1 DUP3 GT ISZERO PUSH2 0x338B JUMPI PUSH2 0x338A PUSH2 0x3331 JUMP JUMPDEST JUMPDEST SWAP3 SWAP2 POP POP JUMP JUMPDEST PUSH0 PUSH2 0x339B DUP3 PUSH2 0x2446 JUMP JUMPDEST SWAP2 POP PUSH2 0x33A6 DUP4 PUSH2 0x2446 JUMP JUMPDEST SWAP3 POP DUP3 DUP3 SUB SWAP1 POP DUP2 DUP2 GT ISZERO PUSH2 0x33BE JUMPI PUSH2 0x33BD PUSH2 0x3331 JUMP JUMPDEST JUMPDEST SWAP3 SWAP2 POP POP JUMP JUMPDEST PUSH32 0x4552433732313A206F776E657220717565727920666F72206E6F6E6578697374 PUSH0 DUP3 ADD MSTORE PUSH32 0x656E7420746F6B656E0000000000000000000000000000000000000000000000 PUSH1 0x20 DUP3 ADD MSTORE POP JUMP JUMPDEST PUSH0 PUSH2 0x341E PUSH1 0x29 DUP4 PUSH2 0x23C0 JUMP JUMPDEST SWAP2 POP PUSH2 0x3429 DUP3 PUSH2 0x33C4 JUMP JUMPDEST PUSH1 0x40 DUP3 ADD SWAP1 POP SWAP2 SWAP1 POP JUMP JUMPDEST PUSH0 PUSH1 0x20 DUP3 ADD SWAP1 POP DUP2 DUP2 SUB PUSH0 DUP4 ADD MSTORE PUSH2 0x344B DUP2 PUSH2 0x3412 JUMP JUMPDEST SWAP1 POP SWAP2 SWAP1 POP JUMP JUMPDEST PUSH32 0x4552433732313A2062616C616E636520717565727920666F7220746865207A65 PUSH0 DUP3 ADD MSTORE PUSH32 0x726F206164647265737300000000000000000000000000000000000000000000 PUSH1 0x20 DUP3 ADD MSTORE POP JUMP JUMPDEST PUSH0 PUSH2 0x34AC PUSH1 0x2A DUP4 PUSH2 0x23C0 JUMP JUMPDEST SWAP2 POP PUSH2 0x34B7 DUP3 PUSH2 0x3452 JUMP JUMPDEST PUSH1 0x40 DUP3 ADD SWAP1 POP SWAP2 SWAP1 POP JUMP JUMPDEST PUSH0 PUSH1 0x20 DUP3 ADD SWAP1 POP DUP2 DUP2 SUB PUSH0 DUP4 ADD MSTORE PUSH2 0x34D9 DUP2 PUSH2 0x34A0 JUMP JUMPDEST SWAP1 POP SWAP2 SWAP1 POP JUMP JUMPDEST PUSH0 PUSH10 0xFFFFFFFFFFFFFFFFFFFF DUP3 AND SWAP1 POP SWAP2 SWAP1 POP JUMP JUMPDEST PUSH2 0x34FE DUP2 PUSH2 0x34E0 JUMP JUMPDEST DUP2 EQ PUSH2 0x3508 JUMPI PUSH0 DUP1 REVERT JUMPDEST POP JUMP JUMPDEST PUSH0 DUP2 MLOAD SWAP1 POP PUSH2 0x3519 DUP2 PUSH2 0x34F5 JUMP JUMPDEST SWAP3 SWAP2 POP POP JUMP JUMPDEST PUSH0 DUP2 MLOAD SWAP1 POP PUSH2 0x352D DUP2 PUSH2 0x2B3A JUMP JUMPDEST SWAP3 SWAP2 POP POP JUMP JUMPDEST PUSH0 DUP2 MLOAD SWAP1 POP PUSH2 0x3541 DUP2 PUSH2 0x244F JUMP JUMPDEST SWAP3 SWAP2 POP POP JUMP JUMPDEST PUSH0 DUP1 PUSH0 DUP1 PUSH0 PUSH1 0xA0 DUP7 DUP9 SUB SLT ISZERO PUSH2 0x3560 JUMPI PUSH2 0x355F PUSH2 0x22FB JUMP JUMPDEST JUMPDEST PUSH0 PUSH2 0x356D DUP9 DUP3 DUP10 ADD PUSH2 0x350B JUMP JUMPDEST SWAP6 POP POP PUSH1 0x20 PUSH2 0x357E DUP9 DUP3 DUP10 ADD PUSH2 0x351F JUMP JUMPDEST SWAP5 POP POP PUSH1 0x40 PUSH2 0x358F DUP9 DUP3 DUP10 ADD PUSH2 0x3533 JUMP JUMPDEST SWAP4 POP POP PUSH1 0x60 PUSH2 0x35A0 DUP9 DUP3 DUP10 ADD PUSH2 0x3533 JUMP JUMPDEST SWAP3 POP POP PUSH1 0x80 PUSH2 0x35B1 DUP9 DUP3 DUP10 ADD PUSH2 0x350B JUMP JUMPDEST SWAP2 POP POP SWAP3 SWAP6 POP SWAP3 SWAP6 SWAP1 SWAP4 POP JUMP JUMPDEST PUSH32 0x4F776E61626C653A206E6577206F776E657220697320746865207A65726F2061 PUSH0 DUP3 ADD MSTORE PUSH32 0x6464726573730000000000000000000000000000000000000000000000000000 PUSH1 0x20 DUP3 ADD MSTORE POP JUMP JUMPDEST PUSH0 PUSH2 0x3618 PUSH1 0x26 DUP4 PUSH2 0x23C0 JUMP JUMPDEST SWAP2 POP PUSH2 0x3623 DUP3 PUSH2 0x35BE JUMP JUMPDEST PUSH1 0x40 DUP3 ADD SWAP1 POP SWAP2 SWAP1 POP JUMP JUMPDEST PUSH0 PUSH1 0x20 DUP3 ADD SWAP1 POP DUP2 DUP2 SUB PUSH0 DUP4 ADD MSTORE PUSH2 0x3645 DUP2 PUSH2 0x360C JUMP JUMPDEST SWAP1 POP SWAP2 SWAP1 POP JUMP JUMPDEST PUSH32 0x4552433732313A206F70657261746F7220717565727920666F72206E6F6E6578 PUSH0 DUP3 ADD MSTORE PUSH32 0x697374656E7420746F6B656E0000000000000000000000000000000000000000 PUSH1 0x20 DUP3 ADD MSTORE POP JUMP JUMPDEST PUSH0 PUSH2 0x36A6 PUSH1 0x2C DUP4 PUSH2 0x23C0 JUMP JUMPDEST SWAP2 POP PUSH2 0x36B1 DUP3 PUSH2 0x364C JUMP JUMPDEST PUSH1 0x40 DUP3 ADD SWAP1 POP SWAP2 SWAP1 POP JUMP JUMPDEST PUSH0 PUSH1 0x20 DUP3 ADD SWAP1 POP DUP2 DUP2 SUB PUSH0 DUP4 ADD MSTORE PUSH2 0x36D3 DUP2 PUSH2 0x369A JUMP JUMPDEST SWAP1 POP SWAP2 SWAP1 POP JUMP JUMPDEST PUSH32 0x4552433732313A207472616E736665722066726F6D20696E636F727265637420 PUSH0 DUP3 ADD MSTORE PUSH32 0x6F776E6572000000000000000000000000000000000000000000000000000000 PUSH1 0x20 DUP3 ADD MSTORE POP JUMP JUMPDEST PUSH0 PUSH2 0x3734 PUSH1 0x25 DUP4 PUSH2 0x23C0 JUMP JUMPDEST SWAP2 POP PUSH2 0x373F DUP3 PUSH2 0x36DA JUMP JUMPDEST PUSH1 0x40 DUP3 ADD SWAP1 POP SWAP2 SWAP1 POP JUMP JUMPDEST PUSH0 PUSH1 0x20 DUP3 ADD SWAP1 POP DUP2 DUP2 SUB PUSH0 DUP4 ADD MSTORE PUSH2 0x3761 DUP2 PUSH2 0x3728 JUMP JUMPDEST SWAP1 POP SWAP2 SWAP1 POP JUMP JUMPDEST PUSH32 0x4552433732313A207472616E7366657220746F20746865207A65726F20616464 PUSH0 DUP3 ADD MSTORE PUSH32 0x7265737300000000000000000000000000000000000000000000000000000000 PUSH1 0x20 DUP3 ADD MSTORE POP JUMP JUMPDEST PUSH0 PUSH2 0x37C2 PUSH1 0x24 DUP4 PUSH2 0x23C0 JUMP JUMPDEST SWAP2 POP PUSH2 0x37CD DUP3 PUSH2 0x3768 JUMP JUMPDEST PUSH1 0x40 DUP3 ADD SWAP1 POP SWAP2 SWAP1 POP JUMP JUMPDEST PUSH0 PUSH1 0x20 DUP3 ADD SWAP1 POP DUP2 DUP2 SUB PUSH0 DUP4 ADD MSTORE PUSH2 0x37EF DUP2 PUSH2 0x37B6 JUMP JUMPDEST SWAP1 POP SWAP2 SWAP1 POP JUMP JUMPDEST PUSH32 0x45524337323155524953746F726167653A2055524920736574206F66206E6F6E PUSH0 DUP3 ADD MSTORE PUSH32 0x6578697374656E7420746F6B656E000000000000000000000000000000000000 PUSH1 0x20 DUP3 ADD MSTORE POP JUMP JUMPDEST PUSH0 PUSH2 0x3850 PUSH1 0x2E DUP4 PUSH2 0x23C0 JUMP JUMPDEST SWAP2 POP PUSH2 0x385B DUP3 PUSH2 0x37F6 JUMP JUMPDEST PUSH1 0x40 DUP3 ADD SWAP1 POP SWAP2 SWAP1 POP JUMP JUMPDEST PUSH0 PUSH1 0x20 DUP3 ADD SWAP1 POP DUP2 DUP2 SUB PUSH0 DUP4 ADD MSTORE PUSH2 0x387D DUP2 PUSH2 0x3844 JUMP JUMPDEST SWAP1 POP SWAP2 SWAP1 POP JUMP JUMPDEST PUSH32 0x4552433732313A20617070726F766520746F2063616C6C657200000000000000 PUSH0 DUP3 ADD MSTORE POP JUMP JUMPDEST PUSH0 PUSH2 0x38B8 PUSH1 0x19 DUP4 PUSH2 0x23C0 JUMP JUMPDEST SWAP2 POP PUSH2 0x38C3 DUP3 PUSH2 0x3884 JUMP JUMPDEST PUSH1 0x20 DUP3 ADD SWAP1 POP SWAP2 SWAP1 POP JUMP JUMPDEST PUSH0 PUSH1 0x20 DUP3 ADD SWAP1 POP DUP2 DUP2 SUB PUSH0 DUP4 ADD MSTORE PUSH2 0x38E5 DUP2 PUSH2 0x38AC JUMP JUMPDEST SWAP1 POP SWAP2 SWAP1 POP JUMP JUMPDEST PUSH32 0x4552433732313A207472616E7366657220746F206E6F6E204552433732315265 PUSH0 DUP3 ADD MSTORE PUSH32 0x63656976657220696D706C656D656E7465720000000000000000000000000000 PUSH1 0x20 DUP3 ADD MSTORE POP JUMP JUMPDEST PUSH0 PUSH2 0x3946 PUSH1 0x32 DUP4 PUSH2 0x23C0 JUMP JUMPDEST SWAP2 POP PUSH2 0x3951 DUP3 PUSH2 0x38EC JUMP JUMPDEST PUSH1 0x40 DUP3 ADD SWAP1 POP SWAP2 SWAP1 POP JUMP JUMPDEST PUSH0 PUSH1 0x20 DUP3 ADD SWAP1 POP DUP2 DUP2 SUB PUSH0 DUP4 ADD MSTORE PUSH2 0x3973 DUP2 PUSH2 0x393A JUMP JUMPDEST SWAP1 POP SWAP2 SWAP1 POP JUMP JUMPDEST PUSH32 0x45524337323155524953746F726167653A2055524920717565727920666F7220 PUSH0 DUP3 ADD MSTORE PUSH32 0x6E6F6E6578697374656E7420746F6B656E000000000000000000000000000000 PUSH1 0x20 DUP3 ADD MSTORE POP JUMP JUMPDEST PUSH0 PUSH2 0x39D4 PUSH1 0x31 DUP4 PUSH2 0x23C0 JUMP JUMPDEST SWAP2 POP PUSH2 0x39DF DUP3 PUSH2 0x397A JUMP JUMPDEST PUSH1 0x40 DUP3 ADD SWAP1 POP SWAP2 SWAP1 POP JUMP JUMPDEST PUSH0 PUSH1 0x20 DUP3 ADD SWAP1 POP DUP2 DUP2 SUB PUSH0 DUP4 ADD MSTORE PUSH2 0x3A01 DUP2 PUSH2 0x39C8 JUMP JUMPDEST SWAP1 POP SWAP2 SWAP1 POP JUMP JUMPDEST PUSH0 DUP2 SWAP1 POP SWAP3 SWAP2 POP POP JUMP JUMPDEST PUSH0 PUSH2 0x3A1C DUP3 PUSH2 0x23B6 JUMP JUMPDEST PUSH2 0x3A26 DUP2 DUP6 PUSH2 0x3A08 JUMP JUMPDEST SWAP4 POP PUSH2 0x3A36 DUP2 DUP6 PUSH1 0x20 DUP7 ADD PUSH2 0x23D0 JUMP JUMPDEST DUP1 DUP5 ADD SWAP2 POP POP SWAP3 SWAP2 POP POP JUMP JUMPDEST PUSH0 PUSH2 0x3A4D DUP3 DUP6 PUSH2 0x3A12 JUMP JUMPDEST SWAP2 POP PUSH2 0x3A59 DUP3 DUP5 PUSH2 0x3A12 JUMP JUMPDEST SWAP2 POP DUP2 SWAP1 POP SWAP4 SWAP3 POP POP POP JUMP JUMPDEST PUSH0 PUSH1 0x80 DUP3 ADD SWAP1 POP PUSH2 0x3A78 PUSH0 DUP4 ADD DUP8 PUSH2 0x24D4 JUMP JUMPDEST PUSH2 0x3A85 PUSH1 0x20 DUP4 ADD DUP7 PUSH2 0x24D4 JUMP JUMPDEST PUSH2 0x3A92 PUSH1 0x40 DUP4 ADD DUP6 PUSH2 0x2992 JUMP JUMPDEST DUP2 DUP2 SUB PUSH1 0x60 DUP4 ADD MSTORE PUSH2 0x3AA4 DUP2 DUP5 PUSH2 0x2A78 JUMP JUMPDEST SWAP1 POP SWAP6 SWAP5 POP POP POP POP POP JUMP JUMPDEST PUSH0 DUP2 MLOAD SWAP1 POP PUSH2 0x3ABD DUP2 PUSH2 0x232E JUMP JUMPDEST SWAP3 SWAP2 POP POP JUMP JUMPDEST PUSH0 PUSH1 0x20 DUP3 DUP5 SUB SLT ISZERO PUSH2 0x3AD8 JUMPI PUSH2 0x3AD7 PUSH2 0x22FB JUMP JUMPDEST JUMPDEST PUSH0 PUSH2 0x3AE5 DUP5 DUP3 DUP6 ADD PUSH2 0x3AAF JUMP JUMPDEST SWAP2 POP POP SWAP3 SWAP2 POP POP JUMP JUMPDEST PUSH32 0x4552433732314D657461646174613A2055524920717565727920666F72206E6F PUSH0 DUP3 ADD MSTORE PUSH32 0x6E6578697374656E7420746F6B656E0000000000000000000000000000000000 PUSH1 0x20 DUP3 ADD MSTORE POP JUMP JUMPDEST PUSH0 PUSH2 0x3B48 PUSH1 0x2F DUP4 PUSH2 0x23C0 JUMP JUMPDEST SWAP2 POP PUSH2 0x3B53 DUP3 PUSH2 0x3AEE JUMP JUMPDEST PUSH1 0x40 DUP3 ADD SWAP1 POP SWAP2 SWAP1 POP JUMP JUMPDEST PUSH0 PUSH1 0x20 DUP3 ADD SWAP1 POP DUP2 DUP2 SUB PUSH0 DUP4 ADD MSTORE PUSH2 0x3B75 DUP2 PUSH2 0x3B3C JUMP JUMPDEST SWAP1 POP SWAP2 SWAP1 POP JUMP JUMPDEST PUSH32 0x4552433732313A206D696E7420746F20746865207A65726F2061646472657373 PUSH0 DUP3 ADD MSTORE POP JUMP JUMPDEST PUSH0 PUSH2 0x3BB0 PUSH1 0x20 DUP4 PUSH2 0x23C0 JUMP JUMPDEST SWAP2 POP PUSH2 0x3BBB DUP3 PUSH2 0x3B7C JUMP JUMPDEST PUSH1 0x20 DUP3 ADD SWAP1 POP SWAP2 SWAP1 POP JUMP JUMPDEST PUSH0 PUSH1 0x20 DUP3 ADD SWAP1 POP DUP2 DUP2 SUB PUSH0 DUP4 ADD MSTORE PUSH2 0x3BDD DUP2 PUSH2 0x3BA4 JUMP JUMPDEST SWAP1 POP SWAP2 SWAP1 POP JUMP JUMPDEST PUSH32 0x4552433732313A20746F6B656E20616C7265616479206D696E74656400000000 PUSH0 DUP3 ADD MSTORE POP JUMP JUMPDEST PUSH0 PUSH2 0x3C18 PUSH1 0x1C DUP4 PUSH2 0x23C0 JUMP JUMPDEST SWAP2 POP PUSH2 0x3C23 DUP3 PUSH2 0x3BE4 JUMP JUMPDEST PUSH1 0x20 DUP3 ADD SWAP1 POP SWAP2 SWAP1 POP JUMP JUMPDEST PUSH0 PUSH1 0x20 DUP3 ADD SWAP1 POP DUP2 DUP2 SUB PUSH0 DUP4 ADD MSTORE PUSH2 0x3C45 DUP2 PUSH2 0x3C0C JUMP JUMPDEST SWAP1 POP SWAP2 SWAP1 POP JUMP JUMPDEST PUSH0 PUSH2 0x3C56 DUP3 PUSH2 0x2446 JUMP JUMPDEST SWAP2 POP PUSH32 0xFFFFFFFFFFFFFFFFFFFFFFFFFFFFFFFFFFFFFFFFFFFFFFFFFFFFFFFFFFFFFFFF DUP3 SUB PUSH2 0x3C88 JUMPI PUSH2 0x3C87 PUSH2 0x3331 JUMP JUMPDEST JUMPDEST PUSH1 0x1 DUP3 ADD SWAP1 POP SWAP2 SWAP1 POP JUMP JUMPDEST PUSH32 0x4E487B7100000000000000000000000000000000000000000000000000000000 PUSH0 MSTORE PUSH1 0x12 PUSH1 0x4 MSTORE PUSH1 0x24 PUSH0 REVERT JUMPDEST PUSH0 PUSH2 0x3CCA DUP3 PUSH2 0x2446 JUMP JUMPDEST SWAP2 POP PUSH2 0x3CD5 DUP4 PUSH2 0x2446 JUMP JUMPDEST SWAP3 POP DUP3 PUSH2 0x3CE5 JUMPI PUSH2 0x3CE4 PUSH2 0x3C93 JUMP JUMPDEST JUMPDEST DUP3 DUP3 DIV SWAP1 POP SWAP3 SWAP2 POP POP JUMP JUMPDEST PUSH0 PUSH2 0x3CFA DUP3 PUSH2 0x2446 JUMP JUMPDEST SWAP2 POP PUSH2 0x3D05 DUP4 PUSH2 0x2446 JUMP JUMPDEST SWAP3 POP DUP3 PUSH2 0x3D15 JUMPI PUSH2 0x3D14 PUSH2 0x3C93 JUMP JUMPDEST JUMPDEST DUP3 DUP3 MOD SWAP1 POP SWAP3 SWAP2 POP POP JUMP INVALID LOG2 PUSH5 0x6970667358 0x22 SLT KECCAK256 0xDF CREATE2 CALLDATACOPY PUSH27 0x364C59BE8E34D839F71B10F0F808CB151C1D87A38E653D4660A936 0xE4 PUSH5 0x736F6C6343 STOP ADDMOD NOT STOP CALLER "
		},
		"gasEstimates": {
			"creation": {
				"codeDepositCost": "3140400",
				"executionCost": "infinite",
				"totalCost": "infinite"
			},
			"external": {
				"_metadata(uint256,uint256)": "infinite",
				"_priceTiersThresholds(uint256,uint256)": "infinite",
				"approve(address,uint256)": "infinite",
				"balanceOf(address)": "2975",
				"checkUpkeep(bytes)": "infinite",
				"determinePriceTier(int256,uint256)": "infinite",
				"getApproved(uint256)": "5234",
				"getChainlinkDataFeedLatestAnswer(uint256)": "infinite",
				"interval()": "2492",
				"isApprovedForAll(address,address)": "infinite",
				"lastTimeStamp()": "2493",
				"name()": "infinite",
				"owner()": "2605",
				"ownerOf(uint256)": "3026",
				"performUpkeep(bytes)": "infinite",
				"priceFeeds(uint256)": "infinite",
				"renounceOwnership()": "30412",
				"safeMint(address,uint256[],string[],address)": "infinite",
				"safeTransferFrom(address,address,uint256)": "infinite",
				"safeTransferFrom(address,address,uint256,bytes)": "infinite",
				"setApprovalForAll(address,bool)": "infinite",
				"setInterval(uint256)": "24842",
				"supportsInterface(bytes4)": "810",
				"symbol()": "infinite",
				"tokenURI(uint256)": "infinite",
				"transferFrom(address,address,uint256)": "infinite",
				"transferOwnership(address)": "30817",
				"updateTokenURI()": "infinite"
			},
			"internal": {
				"_burn(uint256)": "infinite"
			}
		},
		"methodIdentifiers": {
			"_metadata(uint256,uint256)": "d9a4e193",
			"_priceTiersThresholds(uint256,uint256)": "e4e47c3e",
			"approve(address,uint256)": "095ea7b3",
			"balanceOf(address)": "70a08231",
			"checkUpkeep(bytes)": "6e04ff0d",
			"determinePriceTier(int256,uint256)": "9309d80d",
			"getApproved(uint256)": "081812fc",
			"getChainlinkDataFeedLatestAnswer(uint256)": "739ebd03",
			"interval()": "947a36fb",
			"isApprovedForAll(address,address)": "e985e9c5",
			"lastTimeStamp()": "3f3b3b27",
			"name()": "06fdde03",
			"owner()": "8da5cb5b",
			"ownerOf(uint256)": "6352211e",
			"performUpkeep(bytes)": "4585e33b",
			"priceFeeds(uint256)": "10c7f0b9",
			"renounceOwnership()": "715018a6",
			"safeMint(address,uint256[],string[],address)": "2e1f6554",
			"safeTransferFrom(address,address,uint256)": "42842e0e",
			"safeTransferFrom(address,address,uint256,bytes)": "b88d4fde",
			"setApprovalForAll(address,bool)": "a22cb465",
			"setInterval(uint256)": "22a90082",
			"supportsInterface(bytes4)": "01ffc9a7",
			"symbol()": "95d89b41",
			"tokenURI(uint256)": "c87b56dd",
			"transferFrom(address,address,uint256)": "23b872dd",
			"transferOwnership(address)": "f2fde38b",
			"updateTokenURI()": "f243d0a6"
		}
	},
	"abi": [
		{
			"inputs": [],
			"stateMutability": "nonpayable",
			"type": "constructor"
		},
		{
			"inputs": [],
			"name": "OnlySimulatedBackend",
			"type": "error"
		},
		{
			"anonymous": false,
			"inputs": [
				{
					"indexed": true,
					"internalType": "address",
					"name": "owner",
					"type": "address"
				},
				{
					"indexed": true,
					"internalType": "address",
					"name": "approved",
					"type": "address"
				},
				{
					"indexed": true,
					"internalType": "uint256",
					"name": "tokenId",
					"type": "uint256"
				}
			],
			"name": "Approval",
			"type": "event"
		},
		{
			"anonymous": false,
			"inputs": [
				{
					"indexed": true,
					"internalType": "address",
					"name": "owner",
					"type": "address"
				},
				{
					"indexed": true,
					"internalType": "address",
					"name": "operator",
					"type": "address"
				},
				{
					"indexed": false,
					"internalType": "bool",
					"name": "approved",
					"type": "bool"
				}
			],
			"name": "ApprovalForAll",
			"type": "event"
		},
		{
			"anonymous": false,
			"inputs": [
				{
					"indexed": true,
					"internalType": "address",
					"name": "to",
					"type": "address"
				},
				{
					"indexed": true,
					"internalType": "uint256",
					"name": "tokenId",
					"type": "uint256"
				}
			],
			"name": "Minted",
			"type": "event"
		},
		{
			"anonymous": false,
			"inputs": [
				{
					"indexed": true,
					"internalType": "address",
					"name": "previousOwner",
					"type": "address"
				},
				{
					"indexed": true,
					"internalType": "address",
					"name": "newOwner",
					"type": "address"
				}
			],
			"name": "OwnershipTransferred",
			"type": "event"
		},
		{
			"anonymous": false,
			"inputs": [
				{
					"indexed": true,
					"internalType": "address",
					"name": "from",
					"type": "address"
				},
				{
					"indexed": true,
					"internalType": "address",
					"name": "to",
					"type": "address"
				},
				{
					"indexed": true,
					"internalType": "uint256",
					"name": "tokenId",
					"type": "uint256"
				}
			],
			"name": "Transfer",
			"type": "event"
		},
		{
			"inputs": [
				{
					"internalType": "uint256",
					"name": "",
					"type": "uint256"
				},
				{
					"internalType": "uint256",
					"name": "",
					"type": "uint256"
				}
			],
			"name": "_metadata",
			"outputs": [
				{
					"internalType": "string",
					"name": "",
					"type": "string"
				}
			],
			"stateMutability": "view",
			"type": "function"
		},
		{
			"inputs": [
				{
					"internalType": "uint256",
					"name": "",
					"type": "uint256"
				},
				{
					"internalType": "uint256",
					"name": "",
					"type": "uint256"
				}
			],
			"name": "_priceTiersThresholds",
			"outputs": [
				{
					"internalType": "uint256",
					"name": "",
					"type": "uint256"
				}
			],
			"stateMutability": "view",
			"type": "function"
		},
		{
			"inputs": [
				{
					"internalType": "address",
					"name": "to",
					"type": "address"
				},
				{
					"internalType": "uint256",
					"name": "tokenId",
					"type": "uint256"
				}
			],
			"name": "approve",
			"outputs": [],
			"stateMutability": "nonpayable",
			"type": "function"
		},
		{
			"inputs": [
				{
					"internalType": "address",
					"name": "owner",
					"type": "address"
				}
			],
			"name": "balanceOf",
			"outputs": [
				{
					"internalType": "uint256",
					"name": "",
					"type": "uint256"
				}
			],
			"stateMutability": "view",
			"type": "function"
		},
		{
			"inputs": [
				{
					"internalType": "bytes",
					"name": "",
					"type": "bytes"
				}
			],
			"name": "checkUpkeep",
			"outputs": [
				{
					"internalType": "bool",
					"name": "upkeepNeeded",
					"type": "bool"
				},
				{
					"internalType": "bytes",
					"name": "",
					"type": "bytes"
				}
			],
			"stateMutability": "view",
			"type": "function"
		},
		{
			"inputs": [
				{
					"internalType": "int256",
					"name": "latestPrice",
					"type": "int256"
				},
				{
					"internalType": "uint256",
					"name": "tokenId",
					"type": "uint256"
				}
			],
			"name": "determinePriceTier",
			"outputs": [
				{
					"internalType": "uint256",
					"name": "",
					"type": "uint256"
				}
			],
			"stateMutability": "view",
			"type": "function"
		},
		{
			"inputs": [
				{
					"internalType": "uint256",
					"name": "tokenId",
					"type": "uint256"
				}
			],
			"name": "getApproved",
			"outputs": [
				{
					"internalType": "address",
					"name": "",
					"type": "address"
				}
			],
			"stateMutability": "view",
			"type": "function"
		},
		{
			"inputs": [
				{
					"internalType": "uint256",
					"name": "tokenId",
					"type": "uint256"
				}
			],
			"name": "getChainlinkDataFeedLatestAnswer",
			"outputs": [
				{
					"internalType": "int256",
					"name": "",
					"type": "int256"
				}
			],
			"stateMutability": "view",
			"type": "function"
		},
		{
			"inputs": [],
			"name": "interval",
			"outputs": [
				{
					"internalType": "uint256",
					"name": "",
					"type": "uint256"
				}
			],
			"stateMutability": "view",
			"type": "function"
		},
		{
			"inputs": [
				{
					"internalType": "address",
					"name": "owner",
					"type": "address"
				},
				{
					"internalType": "address",
					"name": "operator",
					"type": "address"
				}
			],
			"name": "isApprovedForAll",
			"outputs": [
				{
					"internalType": "bool",
					"name": "",
					"type": "bool"
				}
			],
			"stateMutability": "view",
			"type": "function"
		},
		{
			"inputs": [],
			"name": "lastTimeStamp",
			"outputs": [
				{
					"internalType": "uint256",
					"name": "",
					"type": "uint256"
				}
			],
			"stateMutability": "view",
			"type": "function"
		},
		{
			"inputs": [],
			"name": "name",
			"outputs": [
				{
					"internalType": "string",
					"name": "",
					"type": "string"
				}
			],
			"stateMutability": "view",
			"type": "function"
		},
		{
			"inputs": [],
			"name": "owner",
			"outputs": [
				{
					"internalType": "address",
					"name": "",
					"type": "address"
				}
			],
			"stateMutability": "view",
			"type": "function"
		},
		{
			"inputs": [
				{
					"internalType": "uint256",
					"name": "tokenId",
					"type": "uint256"
				}
			],
			"name": "ownerOf",
			"outputs": [
				{
					"internalType": "address",
					"name": "",
					"type": "address"
				}
			],
			"stateMutability": "view",
			"type": "function"
		},
		{
			"inputs": [
				{
					"internalType": "bytes",
					"name": "",
					"type": "bytes"
				}
			],
			"name": "performUpkeep",
			"outputs": [],
			"stateMutability": "nonpayable",
			"type": "function"
		},
		{
			"inputs": [
				{
					"internalType": "uint256",
					"name": "",
					"type": "uint256"
				}
			],
			"name": "priceFeeds",
			"outputs": [
				{
					"internalType": "contract AggregatorV3Interface",
					"name": "",
					"type": "address"
				}
			],
			"stateMutability": "view",
			"type": "function"
		},
		{
			"inputs": [],
			"name": "renounceOwnership",
			"outputs": [],
			"stateMutability": "nonpayable",
			"type": "function"
		},
		{
			"inputs": [
				{
					"internalType": "address",
					"name": "to",
					"type": "address"
				},
				{
					"internalType": "uint256[]",
					"name": "priceTiers",
					"type": "uint256[]"
				},
				{
					"internalType": "string[]",
					"name": "metadataJson",
					"type": "string[]"
				},
				{
					"internalType": "address",
					"name": "priceFeedAddress",
					"type": "address"
				}
			],
			"name": "safeMint",
			"outputs": [
				{
					"internalType": "uint256",
					"name": "",
					"type": "uint256"
				}
			],
			"stateMutability": "nonpayable",
			"type": "function"
		},
		{
			"inputs": [
				{
					"internalType": "address",
					"name": "from",
					"type": "address"
				},
				{
					"internalType": "address",
					"name": "to",
					"type": "address"
				},
				{
					"internalType": "uint256",
					"name": "tokenId",
					"type": "uint256"
				}
			],
			"name": "safeTransferFrom",
			"outputs": [],
			"stateMutability": "nonpayable",
			"type": "function"
		},
		{
			"inputs": [
				{
					"internalType": "address",
					"name": "from",
					"type": "address"
				},
				{
					"internalType": "address",
					"name": "to",
					"type": "address"
				},
				{
					"internalType": "uint256",
					"name": "tokenId",
					"type": "uint256"
				},
				{
					"internalType": "bytes",
					"name": "_data",
					"type": "bytes"
				}
			],
			"name": "safeTransferFrom",
			"outputs": [],
			"stateMutability": "nonpayable",
			"type": "function"
		},
		{
			"inputs": [
				{
					"internalType": "address",
					"name": "operator",
					"type": "address"
				},
				{
					"internalType": "bool",
					"name": "approved",
					"type": "bool"
				}
			],
			"name": "setApprovalForAll",
			"outputs": [],
			"stateMutability": "nonpayable",
			"type": "function"
		},
		{
			"inputs": [
				{
					"internalType": "uint256",
					"name": "newInterval",
					"type": "uint256"
				}
			],
			"name": "setInterval",
			"outputs": [],
			"stateMutability": "nonpayable",
			"type": "function"
		},
		{
			"inputs": [
				{
					"internalType": "bytes4",
					"name": "interfaceId",
					"type": "bytes4"
				}
			],
			"name": "supportsInterface",
			"outputs": [
				{
					"internalType": "bool",
					"name": "",
					"type": "bool"
				}
			],
			"stateMutability": "view",
			"type": "function"
		},
		{
			"inputs": [],
			"name": "symbol",
			"outputs": [
				{
					"internalType": "string",
					"name": "",
					"type": "string"
				}
			],
			"stateMutability": "view",
			"type": "function"
		},
		{
			"inputs": [
				{
					"internalType": "uint256",
					"name": "tokenId",
					"type": "uint256"
				}
			],
			"name": "tokenURI",
			"outputs": [
				{
					"internalType": "string",
					"name": "",
					"type": "string"
				}
			],
			"stateMutability": "view",
			"type": "function"
		},
		{
			"inputs": [
				{
					"internalType": "address",
					"name": "from",
					"type": "address"
				},
				{
					"internalType": "address",
					"name": "to",
					"type": "address"
				},
				{
					"internalType": "uint256",
					"name": "tokenId",
					"type": "uint256"
				}
			],
			"name": "transferFrom",
			"outputs": [],
			"stateMutability": "nonpayable",
			"type": "function"
		},
		{
			"inputs": [
				{
					"internalType": "address",
					"name": "newOwner",
					"type": "address"
				}
			],
			"name": "transferOwnership",
			"outputs": [],
			"stateMutability": "nonpayable",
			"type": "function"
		},
		{
			"inputs": [],
			"name": "updateTokenURI",
			"outputs": [],
			"stateMutability": "nonpayable",
			"type": "function"
		}
	]
}